{
  "_format": "hh-sol-artifact-1",
  "contractName": "ZexPresale",
  "sourceName": "contracts/ZexPresale.sol",
  "abi": [
    {
      "inputs": [
        {
          "internalType": "address",
          "name": "_zexToken",
          "type": "address"
        }
      ],
      "stateMutability": "nonpayable",
      "type": "constructor"
    },
    {
      "inputs": [
        {
          "internalType": "address",
          "name": "owner",
          "type": "address"
        }
      ],
      "name": "OwnableInvalidOwner",
      "type": "error"
    },
    {
      "inputs": [
        {
          "internalType": "address",
          "name": "account",
          "type": "address"
        }
      ],
      "name": "OwnableUnauthorizedAccount",
      "type": "error"
    },
    {
      "inputs": [],
      "name": "ReentrancyGuardReentrantCall",
      "type": "error"
    },
    {
      "anonymous": false,
      "inputs": [
        {
          "indexed": true,
          "internalType": "address",
          "name": "previousOwner",
          "type": "address"
        },
        {
          "indexed": true,
          "internalType": "address",
          "name": "newOwner",
          "type": "address"
        }
      ],
      "name": "OwnershipTransferred",
      "type": "event"
    },
    {
      "anonymous": false,
      "inputs": [
        {
          "indexed": false,
          "internalType": "bool",
          "name": "isActive",
          "type": "bool"
        }
      ],
      "name": "PresaleStateChanged",
      "type": "event"
    },
    {
      "anonymous": false,
      "inputs": [
        {
          "indexed": true,
          "internalType": "address",
          "name": "buyer",
          "type": "address"
        },
        {
          "indexed": false,
          "internalType": "uint256",
          "name": "polAmount",
          "type": "uint256"
        },
        {
          "indexed": false,
          "internalType": "uint256",
          "name": "zexAmount",
          "type": "uint256"
        }
      ],
      "name": "TokensPurchased",
      "type": "event"
    },
    {
      "anonymous": false,
      "inputs": [
        {
          "indexed": true,
          "internalType": "address",
          "name": "seller",
          "type": "address"
        },
        {
          "indexed": false,
          "internalType": "uint256",
          "name": "zexReturned",
          "type": "uint256"
        },
        {
          "indexed": false,
          "internalType": "uint256",
          "name": "polRefunded",
          "type": "uint256"
        },
        {
          "indexed": false,
          "internalType": "uint256",
          "name": "zexBurned",
          "type": "uint256"
        }
      ],
      "name": "TokensRefunded",
      "type": "event"
    },
    {
      "inputs": [],
      "name": "MAX_PRIVATE_SALE_POOL",
      "outputs": [
        {
          "internalType": "uint256",
          "name": "",
          "type": "uint256"
        }
      ],
      "stateMutability": "view",
      "type": "function"
    },
    {
      "inputs": [],
      "name": "PRIVATE_SALE_RATE",
      "outputs": [
        {
          "internalType": "uint256",
          "name": "",
          "type": "uint256"
        }
      ],
      "stateMutability": "view",
      "type": "function"
    },
    {
      "inputs": [],
      "name": "PUBLIC_SALE_RATE",
      "outputs": [
        {
          "internalType": "uint256",
          "name": "",
          "type": "uint256"
        }
      ],
      "stateMutability": "view",
      "type": "function"
    },
    {
      "inputs": [],
      "name": "buyTokens",
      "outputs": [],
      "stateMutability": "payable",
      "type": "function"
    },
    {
      "inputs": [
        {
          "internalType": "address",
          "name": "",
          "type": "address"
        }
      ],
      "name": "contributions",
      "outputs": [
        {
          "internalType": "uint256",
          "name": "zexPurchased",
          "type": "uint256"
        },
        {
          "internalType": "uint256",
          "name": "polSpent",
          "type": "uint256"
        }
      ],
      "stateMutability": "view",
      "type": "function"
    },
    {
      "inputs": [],
      "name": "owner",
      "outputs": [
        {
          "internalType": "address",
          "name": "",
          "type": "address"
        }
      ],
      "stateMutability": "view",
      "type": "function"
    },
    {
      "inputs": [],
      "name": "penaltyPercent",
      "outputs": [
        {
          "internalType": "uint256",
          "name": "",
          "type": "uint256"
        }
      ],
      "stateMutability": "view",
      "type": "function"
    },
    {
      "inputs": [],
      "name": "presaleActive",
      "outputs": [
        {
          "internalType": "bool",
          "name": "",
          "type": "bool"
        }
      ],
      "stateMutability": "view",
      "type": "function"
    },
    {
      "inputs": [
        {
          "internalType": "uint256",
          "name": "zexAmount",
          "type": "uint256"
        }
      ],
      "name": "refund",
      "outputs": [],
      "stateMutability": "nonpayable",
      "type": "function"
    },
    {
      "inputs": [],
      "name": "renounceOwnership",
      "outputs": [],
      "stateMutability": "nonpayable",
      "type": "function"
    },
    {
      "inputs": [],
      "name": "retrieveUnsoldTokens",
      "outputs": [],
      "stateMutability": "nonpayable",
      "type": "function"
    },
    {
      "inputs": [
        {
          "internalType": "bool",
          "name": "_active",
          "type": "bool"
        }
      ],
      "name": "togglePresale",
      "outputs": [],
      "stateMutability": "nonpayable",
      "type": "function"
    },
    {
      "inputs": [],
      "name": "totalZexSold",
      "outputs": [
        {
          "internalType": "uint256",
          "name": "",
          "type": "uint256"
        }
      ],
      "stateMutability": "view",
      "type": "function"
    },
    {
      "inputs": [
        {
          "internalType": "address",
          "name": "newOwner",
          "type": "address"
        }
      ],
      "name": "transferOwnership",
      "outputs": [],
      "stateMutability": "nonpayable",
      "type": "function"
    },
    {
      "inputs": [],
      "name": "withdrawFunds",
      "outputs": [],
      "stateMutability": "nonpayable",
      "type": "function"
    },
    {
      "inputs": [],
      "name": "zexToken",
      "outputs": [
        {
          "internalType": "contract IBurnableERC20",
          "name": "",
          "type": "address"
        }
      ],
      "stateMutability": "view",
      "type": "function"
    },
    {
      "stateMutability": "payable",
      "type": "receive"
    }
  ],
  "bytecode": "0x6080604052600f60045534801561001557600080fd5b50604051611071380380611071833981016040819052610034916100dd565b338061005a57604051631e4fbdf760e01b81526000600482015260240160405180910390fd5b6100638161008d565b5060018055600280546001600160a01b0319166001600160a01b039290921691909117905561010d565b600080546001600160a01b038381166001600160a01b0319831681178455604051919092169283917f8be0079c531659141344cd1fd0a4f28419497f9722a3daafe3b4186f6b6457e09190a35050565b6000602082840312156100ef57600080fd5b81516001600160a01b038116811461010657600080fd5b9392505050565b610f558061011c6000396000f3fe6080604052600436106100f75760003560e01c80636b2ce7f11161008a578063d0febe4c11610059578063d0febe4c146102af578063e6c24ffe146102b7578063f2fde38b146102d6578063f9b68077146102f657600080fd5b80636b2ce7f114610247578063715018a61461026757806374151a2a1461027c5780638da5cb5b1461029157600080fd5b8063278ecde1116100c6578063278ecde114610175578063360fc35a1461019557806342e94c90146101cd57806353135ca01461021657600080fd5b8063074a35cb1461010b578063161ba46a1461013457806320f09cbe1461014a57806324600fc31461016057600080fd5b366101065761010461030b565b005b600080fd5b34801561011757600080fd5b5061012161014d81565b6040519081526020015b60405180910390f35b34801561014057600080fd5b5061012160045481565b34801561015657600080fd5b5061012160035481565b34801561016c57600080fd5b5061010461060c565b34801561018157600080fd5b50610104610190366004610dfa565b6106f9565b3480156101a157600080fd5b506002546101b5906001600160a01b031681565b6040516001600160a01b03909116815260200161012b565b3480156101d957600080fd5b506102016101e8366004610e13565b6005602052600090815260409020805460019091015482565b6040805192835260208301919091520161012b565b34801561022257600080fd5b5060025461023790600160a01b900460ff1681565b604051901515815260200161012b565b34801561025357600080fd5b50610104610262366004610e51565b610b18565b34801561027357600080fd5b50610104610b78565b34801561028857600080fd5b50610104610b8a565b34801561029d57600080fd5b506000546001600160a01b03166101b5565b61010461030b565b3480156102c357600080fd5b506101216a084595161401484a00000081565b3480156102e257600080fd5b506101046102f1366004610e13565b610d18565b34801561030257600080fd5b5061012160c881565b610313610d53565b600254600160a01b900460ff166103695760405162461bcd60e51b815260206004820152601560248201527450726573616c65206973206e6f742061637469766560581b60448201526064015b60405180910390fd5b600034116103a95760405162461bcd60e51b815260206004820152600d60248201526c135d5cdd081cd95b99081413d3609a1b6044820152606401610360565b60006a084595161401484a000000600354106103c65760c86103ca565b61014d5b905060006103d88234610e84565b6002546040516370a0823160e01b815230600482015291925082916001600160a01b03909116906370a0823190602401602060405180830381865afa158015610425573d6000803e3d6000fd5b505050506040513d601f19601f820116820180604052508101906104499190610ea1565b10156104a95760405162461bcd60e51b815260206004820152602960248201527f496e73756666696369656e74205a4558206c65667420696e2070726573616c656044820152680818dbdb9d1c9858dd60ba1b6064820152608401610360565b80600360008282546104bb9190610eba565b909155505033600090815260056020526040812080548392906104df908490610eba565b90915550503360009081526005602052604081206001018054349290610506908490610eba565b909155505060025460405163a9059cbb60e01b8152336004820152602481018390526001600160a01b039091169063a9059cbb906044016020604051808303816000875af115801561055c573d6000803e3d6000fd5b505050506040513d601f19601f820116820180604052508101906105809190610ecd565b6105c45760405162461bcd60e51b8152602060048201526015602482015274151bdad95b881d1c985b9cd9995c8819985a5b1959605a1b6044820152606401610360565b604080513481526020810183905233917f8fafebcaf9d154343dad25669bfa277f4fbacd7ac6b0c4fed522580e040a0f33910160405180910390a2505061060a60018055565b565b610614610d7d565b47806106595760405162461bcd60e51b81526020600482015260146024820152734e6f2066756e647320746f20776974686472617760601b6044820152606401610360565b600080546040516001600160a01b039091169083908381818185875af1925050503d80600081146106a6576040519150601f19603f3d011682016040523d82523d6000602084013e6106ab565b606091505b50509050806106f55760405162461bcd60e51b8152602060048201526016602482015275119d5b99081dda5d1a191c985dd85b0819985a5b195960521b6044820152606401610360565b5050565b610701610d53565b600254600160a01b900460ff1661076f5760405162461bcd60e51b815260206004820152602c60248201527f526566756e6473206f6e6c7920616c6c6f776564207768696c6520507265736160448201526b6c652069732061637469766560a01b6064820152608401610360565b600081116107b45760405162461bcd60e51b81526020600482015260126024820152710416d6f756e74206d757374206265203e20360741b6044820152606401610360565b336000908152600560205260409020548111156108215760405162461bcd60e51b815260206004820152602560248201527f43616e6e6f7420726566756e64206d6f7265207468616e206163717569726564604482015264206865726560d81b6064820152608401610360565b3360009081526005602052604081208054600190910154610843908490610e84565b61084d9190610eea565b90506000606460045460646108629190610f0c565b61086c9084610e84565b6108769190610eea565b9050600060646004548561088a9190610e84565b6108949190610eea565b336000908152600560205260408120805492935086929091906108b8908490610f0c565b909155505033600090815260056020526040812060010180548592906108df908490610f0c565b9250508190555083600360008282546108f89190610f0c565b90915550506002546040516323b872dd60e01b8152336004820152306024820152604481018690526001600160a01b03909116906323b872dd906064016020604051808303816000875af1158015610954573d6000803e3d6000fd5b505050506040513d601f19601f820116820180604052508101906109789190610ecd565b6109db5760405162461bcd60e51b815260206004820152602e60248201527f4661696c656420746f2072657475726e205a45582e20456e7375726520616c6c60448201526d37bbb0b731b29034b99039b2ba1760911b6064820152608401610360565b600254604051630852cd8d60e31b8152600481018390526001600160a01b03909116906342966c6890602401600060405180830381600087803b158015610a2157600080fd5b505af1158015610a35573d6000803e3d6000fd5b50506040516000925033915084908381818185875af1925050503d8060008114610a7b576040519150601f19603f3d011682016040523d82523d6000602084013e610a80565b606091505b5050905080610ac55760405162461bcd60e51b81526020600482015260116024820152701413d3081c99599d5b990819985a5b1959607a1b6044820152606401610360565b604080518681526020810185905290810183905233907f7215988a7cdfdb9c35000547406a532d5079f14886f1741c5196caef2a3b6ca59060600160405180910390a250505050610b1560018055565b50565b610b20610d7d565b60028054821515600160a01b0260ff60a01b199091161790556040517f1050112436208e776d9a33d97ca1981ed83303d2a93ccbd8c54f7a774c00f81490610b6d90831515815260200190565b60405180910390a150565b610b80610d7d565b61060a6000610daa565b610b92610d7d565b6002546040516370a0823160e01b81523060048201526000916001600160a01b0316906370a0823190602401602060405180830381865afa158015610bdb573d6000803e3d6000fd5b505050506040513d601f19601f82011682018060405250810190610bff9190610ea1565b905060008111610c3f5760405162461bcd60e51b815260206004820152600b60248201526a139bc8169156081b19599d60aa1b6044820152606401610360565b6002546001600160a01b031663a9059cbb610c626000546001600160a01b031690565b6040516001600160e01b031960e084901b1681526001600160a01b039091166004820152602481018490526044016020604051808303816000875af1158015610caf573d6000803e3d6000fd5b505050506040513d601f19601f82011682018060405250810190610cd39190610ecd565b610b155760405162461bcd60e51b8152602060048201526016602482015275151bdad95b881c995d1c9a595d985b0819985a5b195960521b6044820152606401610360565b610d20610d7d565b6001600160a01b038116610d4a57604051631e4fbdf760e01b815260006004820152602401610360565b610b1581610daa565b600260015403610d7657604051633ee5aeb560e01b815260040160405180910390fd5b6002600155565b6000546001600160a01b0316331461060a5760405163118cdaa760e01b8152336004820152602401610360565b600080546001600160a01b038381166001600160a01b0319831681178455604051919092169283917f8be0079c531659141344cd1fd0a4f28419497f9722a3daafe3b4186f6b6457e09190a35050565b600060208284031215610e0c57600080fd5b5035919050565b600060208284031215610e2557600080fd5b81356001600160a01b0381168114610e3c57600080fd5b9392505050565b8015158114610b1557600080fd5b600060208284031215610e6357600080fd5b8135610e3c81610e43565b634e487b7160e01b600052601160045260246000fd5b8082028115828204841417610e9b57610e9b610e6e565b92915050565b600060208284031215610eb357600080fd5b5051919050565b80820180821115610e9b57610e9b610e6e565b600060208284031215610edf57600080fd5b8151610e3c81610e43565b600082610f0757634e487b7160e01b600052601260045260246000fd5b500490565b81810381811115610e9b57610e9b610e6e56fea2646970667358221220bdfaa61a8ed2ba122b1ad3c5c5eb1e68f8be859eaed9d7be593cfc3754d4119d64736f6c63430008140033",
  "linkReferences": {},
  "deployedLinkReferences": {}
}