{
  "_format": "hh-sol-artifact-1",
  "contractName": "ZexCollectionFactory",
  "sourceName": "contracts/ZexCollectionFactory.sol",
  "abi": [
    {
      "inputs": [
        {
          "internalType": "address",
          "name": "_zexToken",
          "type": "address"
        },
        {
          "internalType": "address",
          "name": "_treasury",
          "type": "address"
        }
      ],
      "stateMutability": "nonpayable",
      "type": "constructor"
    },
    {
      "inputs": [
        {
          "internalType": "address",
          "name": "owner",
          "type": "address"
        }
      ],
      "name": "OwnableInvalidOwner",
      "type": "error"
    },
    {
      "inputs": [
        {
          "internalType": "address",
          "name": "account",
          "type": "address"
        }
      ],
      "name": "OwnableUnauthorizedAccount",
      "type": "error"
    },
    {
      "anonymous": false,
      "inputs": [
        {
          "indexed": true,
          "internalType": "address",
          "name": "owner",
          "type": "address"
        },
        {
          "indexed": false,
          "internalType": "address",
          "name": "collectionAddress",
          "type": "address"
        },
        {
          "indexed": false,
          "internalType": "string",
          "name": "name",
          "type": "string"
        },
        {
          "indexed": false,
          "internalType": "string",
          "name": "symbol",
          "type": "string"
        },
        {
          "indexed": false,
          "internalType": "uint256",
          "name": "maxSupply",
          "type": "uint256"
        },
        {
          "indexed": false,
          "internalType": "uint96",
          "name": "royaltyBps",
          "type": "uint96"
        }
      ],
      "name": "CollectionCreated",
      "type": "event"
    },
    {
      "anonymous": false,
      "inputs": [
        {
          "indexed": false,
          "internalType": "uint256",
          "name": "newBaseFee",
          "type": "uint256"
        },
        {
          "indexed": false,
          "internalType": "uint256",
          "name": "newPerNftFee",
          "type": "uint256"
        }
      ],
      "name": "FeesUpdated",
      "type": "event"
    },
    {
      "anonymous": false,
      "inputs": [
        {
          "indexed": true,
          "internalType": "address",
          "name": "previousOwner",
          "type": "address"
        },
        {
          "indexed": true,
          "internalType": "address",
          "name": "newOwner",
          "type": "address"
        }
      ],
      "name": "OwnershipTransferred",
      "type": "event"
    },
    {
      "anonymous": false,
      "inputs": [
        {
          "indexed": false,
          "internalType": "address",
          "name": "newTreasury",
          "type": "address"
        }
      ],
      "name": "TreasuryUpdated",
      "type": "event"
    },
    {
      "inputs": [],
      "name": "baseFee",
      "outputs": [
        {
          "internalType": "uint256",
          "name": "",
          "type": "uint256"
        }
      ],
      "stateMutability": "view",
      "type": "function"
    },
    {
      "inputs": [
        {
          "internalType": "string",
          "name": "name",
          "type": "string"
        },
        {
          "internalType": "string",
          "name": "symbol",
          "type": "string"
        },
        {
          "internalType": "uint256",
          "name": "maxSupply",
          "type": "uint256"
        },
        {
          "internalType": "uint96",
          "name": "royaltyBasisPoints",
          "type": "uint96"
        }
      ],
      "name": "createCollection",
      "outputs": [
        {
          "internalType": "address",
          "name": "",
          "type": "address"
        }
      ],
      "stateMutability": "nonpayable",
      "type": "function"
    },
    {
      "inputs": [],
      "name": "owner",
      "outputs": [
        {
          "internalType": "address",
          "name": "",
          "type": "address"
        }
      ],
      "stateMutability": "view",
      "type": "function"
    },
    {
      "inputs": [],
      "name": "perNftFee",
      "outputs": [
        {
          "internalType": "uint256",
          "name": "",
          "type": "uint256"
        }
      ],
      "stateMutability": "view",
      "type": "function"
    },
    {
      "inputs": [],
      "name": "renounceOwnership",
      "outputs": [],
      "stateMutability": "nonpayable",
      "type": "function"
    },
    {
      "inputs": [
        {
          "internalType": "address",
          "name": "_newTreasury",
          "type": "address"
        }
      ],
      "name": "setTreasury",
      "outputs": [],
      "stateMutability": "nonpayable",
      "type": "function"
    },
    {
      "inputs": [
        {
          "internalType": "address",
          "name": "_newToken",
          "type": "address"
        }
      ],
      "name": "setZexToken",
      "outputs": [],
      "stateMutability": "nonpayable",
      "type": "function"
    },
    {
      "inputs": [
        {
          "internalType": "address",
          "name": "newOwner",
          "type": "address"
        }
      ],
      "name": "transferOwnership",
      "outputs": [],
      "stateMutability": "nonpayable",
      "type": "function"
    },
    {
      "inputs": [],
      "name": "treasury",
      "outputs": [
        {
          "internalType": "address",
          "name": "",
          "type": "address"
        }
      ],
      "stateMutability": "view",
      "type": "function"
    },
    {
      "inputs": [
        {
          "internalType": "uint256",
          "name": "_newBaseFee",
          "type": "uint256"
        },
        {
          "internalType": "uint256",
          "name": "_newPerNftFee",
          "type": "uint256"
        }
      ],
      "name": "updateFees",
      "outputs": [],
      "stateMutability": "nonpayable",
      "type": "function"
    },
    {
      "inputs": [],
      "name": "zexToken",
      "outputs": [
        {
          "internalType": "contract IERC20",
          "name": "",
          "type": "address"
        }
      ],
      "stateMutability": "view",
      "type": "function"
    }
  ],
  "bytecode": "0x6080604052680d8d726b7177a8000060035568015af1d78b58c4000060045534801561002a57600080fd5b506040516124e23803806124e283398101604081905261004991610116565b338061006f57604051631e4fbdf760e01b81526000600482015260240160405180910390fd5b610078816100aa565b50600180546001600160a01b039384166001600160a01b03199182161790915560028054929093169116179055610149565b600080546001600160a01b038381166001600160a01b0319831681178455604051919092169283917f8be0079c531659141344cd1fd0a4f28419497f9722a3daafe3b4186f6b6457e09190a35050565b80516001600160a01b038116811461011157600080fd5b919050565b6000806040838503121561012957600080fd5b610132836100fa565b9150610140602084016100fa565b90509250929050565b61238a806101586000396000f3fe60806040523480156200001157600080fd5b5060043610620000b75760003560e01c80636ef25c3a116200007a5780636ef25c3a146200014a578063715018a614620001545780637eb37b7e146200015e5780638da5cb5b1462000175578063f0f442601462000187578063f2fde38b146200019e57600080fd5b80630f70be7614620000bc578063303c5e2914620000f0578063360fc35a146200010957806361d027b3146200011d5780636db794371462000131575b600080fd5b620000d3620000cd366004620006f4565b620001b5565b6040516001600160a01b0390911681526020015b60405180910390f35b620000fa60045481565b604051908152602001620000e7565b600154620000d3906001600160a01b031681565b600254620000d3906001600160a01b031681565b620001486200014236600462000788565b620003f1565b005b620000fa60035481565b6200014862000442565b620001486200016f366004620007ab565b6200045a565b6000546001600160a01b0316620000d3565b6200014862000198366004620007ab565b620004d0565b62000148620001af366004620007ab565b62000578565b6000808311620002015760405162461bcd60e51b81526020600482015260126024820152710537570706c79206d757374206265203e20360741b60448201526064015b60405180910390fd5b612710826001600160601b031611156200025e5760405162461bcd60e51b815260206004820152601a60248201527f526f79616c74792063616e6e6f742065786365656420313030250000000000006044820152606401620001f8565b600083600454620002709190620007f3565b6003546200027f919062000813565b6001546002546040516323b872dd60e01b81523360048201526001600160a01b039182166024820152604481018490529293506000929116906323b872dd906064016020604051808303816000875af1158015620002e1573d6000803e3d6000fd5b505050506040513d601f19601f8201168201806040525081019062000307919062000829565b905080620003585760405162461bcd60e51b815260206004820152601760248201527f5a455820666565207472616e73666572206661696c65640000000000000000006044820152606401620001f8565b6000878733876040516200036c906200063b565b6200037b949392919062000895565b604051809103906000f08015801562000398573d6000803e3d6000fd5b509050336001600160a01b03167f318e745cd48235017fdc17c45fae634a1c7da29be1e1d27862a8a460a6e5ac53828a8a8a8a604051620003de959493929190620008e9565b60405180910390a2979650505050505050565b620003fb620005bc565b6003829055600481905560408051838152602081018390527f5c6323bf1c2d7aaea2c091a4751c1c87af7f2864650c336507a77d0557af37a1910160405180910390a15050565b6200044c620005bc565b620004586000620005eb565b565b62000464620005bc565b6001600160a01b038116620004ae5760405162461bcd60e51b815260206004820152600f60248201526e496e76616c6964206164647265737360881b6044820152606401620001f8565b600180546001600160a01b0319166001600160a01b0392909216919091179055565b620004da620005bc565b6001600160a01b038116620005245760405162461bcd60e51b815260206004820152600f60248201526e496e76616c6964206164647265737360881b6044820152606401620001f8565b600280546001600160a01b0319166001600160a01b0383169081179091556040519081527f7dae230f18360d76a040c81f050aa14eb9d6dc7901b20fc5d855e2a20fe814d19060200160405180910390a150565b62000582620005bc565b6001600160a01b038116620005ae57604051631e4fbdf760e01b815260006004820152602401620001f8565b620005b981620005eb565b50565b6000546001600160a01b03163314620004585760405163118cdaa760e01b8152336004820152602401620001f8565b600080546001600160a01b038381166001600160a01b0319831681178455604051919092169283917f8be0079c531659141344cd1fd0a4f28419497f9722a3daafe3b4186f6b6457e09190a35050565b611a0f806200094683390190565b634e487b7160e01b600052604160045260246000fd5b600082601f8301126200067157600080fd5b813567ffffffffffffffff808211156200068f576200068f62000649565b604051601f8301601f19908116603f01168101908282118183101715620006ba57620006ba62000649565b81604052838152866020858801011115620006d457600080fd5b836020870160208301376000602085830101528094505050505092915050565b600080600080608085870312156200070b57600080fd5b843567ffffffffffffffff808211156200072457600080fd5b62000732888389016200065f565b955060208701359150808211156200074957600080fd5b5062000758878288016200065f565b9350506040850135915060608501356001600160601b03811681146200077d57600080fd5b939692955090935050565b600080604083850312156200079c57600080fd5b50508035926020909101359150565b600060208284031215620007be57600080fd5b81356001600160a01b0381168114620007d657600080fd5b9392505050565b634e487b7160e01b600052601160045260246000fd5b80820281158282048414176200080d576200080d620007dd565b92915050565b808201808211156200080d576200080d620007dd565b6000602082840312156200083c57600080fd5b81518015158114620007d657600080fd5b6000815180845260005b81811015620008755760208185018101518683018201520162000857565b506000602082860101526020601f19601f83011685010191505092915050565b608081526000620008aa60808301876200084d565b8281036020840152620008be81876200084d565b6001600160a01b0395909516604084015250506001600160601b039190911660609091015292915050565b6001600160a01b038616815260a0602082018190526000906200090f908301876200084d565b82810360408401526200092381876200084d565b9150508360608301526001600160601b0383166080830152969550505050505056fe60806040523480156200001157600080fd5b5060405162001a0f38038062001a0f83398101604081905262000034916200026b565b8184846002620000458382620003a6565b506003620000548282620003a6565b505060008055506001600160a01b0381166200008b57604051631e4fbdf760e01b8152600060048201526024015b60405180910390fd5b6200009681620000ad565b50620000a38282620000ff565b5050505062000472565b600b80546001600160a01b038381166001600160a01b0319831681179093556040519116919082907f8be0079c531659141344cd1fd0a4f28419497f9722a3daafe3b4186f6b6457e090600090a35050565b6127106001600160601b0382168110156200014057604051636f483d0960e01b81526001600160601b03831660048201526024810182905260440162000082565b6001600160a01b0383166200016c57604051635b6cc80560e11b81526000600482015260240162000082565b50604080518082019091526001600160a01b039092168083526001600160601b039091166020909201829052600160a01b90910217600955565b634e487b7160e01b600052604160045260246000fd5b600082601f830112620001ce57600080fd5b81516001600160401b0380821115620001eb57620001eb620001a6565b604051601f8301601f19908116603f01168101908282118183101715620002165762000216620001a6565b816040528381526020925086838588010111156200023357600080fd5b600091505b8382101562000257578582018301518183018401529082019062000238565b600093810190920192909252949350505050565b600080600080608085870312156200028257600080fd5b84516001600160401b03808211156200029a57600080fd5b620002a888838901620001bc565b95506020870151915080821115620002bf57600080fd5b50620002ce87828801620001bc565b604087015190945090506001600160a01b0381168114620002ee57600080fd5b60608601519092506001600160601b03811681146200030c57600080fd5b939692955090935050565b600181811c908216806200032c57607f821691505b6020821081036200034d57634e487b7160e01b600052602260045260246000fd5b50919050565b601f821115620003a157600081815260208120601f850160051c810160208610156200037c5750805b601f850160051c820191505b818110156200039d5782815560010162000388565b5050505b505050565b81516001600160401b03811115620003c257620003c2620001a6565b620003da81620003d3845462000317565b8462000353565b602080601f831160018114620004125760008415620003f95750858301515b600019600386901b1c1916600185901b1785556200039d565b600085815260208120601f198616915b82811015620004435788860151825594840194600190910190840162000422565b5085821015620004625787850151600019600388901b60f8161c191681555b5050505050600190811b01905550565b61158d80620004826000396000f3fe6080604052600436106101355760003560e01c806370a08231116100ab578063a22cb4651161006f578063a22cb4651461034e578063b88d4fde1461036e578063c87b56dd14610381578063e8a3d485146103a1578063e985e9c5146103b6578063f2fde38b146103d657600080fd5b806370a08231146102c6578063715018a6146102e65780638da5cb5b146102fb578063938e3d7b1461031957806395d89b411461033957600080fd5b806323b872dd116100fd57806323b872dd14610201578063248b71fc146102145780632a55205a1461023457806342842e0e1461027357806355f804b3146102865780636352211e146102a657600080fd5b806301ffc9a71461013a57806306fdde031461016f578063081812fc14610191578063095ea7b3146101c957806318160ddd146101de575b600080fd5b34801561014657600080fd5b5061015a610155366004610fba565b6103f6565b60405190151581526020015b60405180910390f35b34801561017b57600080fd5b50610184610407565b6040516101669190611027565b34801561019d57600080fd5b506101b16101ac36600461103a565b610499565b6040516001600160a01b039091168152602001610166565b6101dc6101d736600461106a565b6104d4565b005b3480156101ea57600080fd5b50600154600054035b604051908152602001610166565b6101dc61020f366004611094565b6104e4565b34801561022057600080fd5b506101dc61022f36600461106a565b610649565b34801561024057600080fd5b5061025461024f3660046110d0565b6106ee565b604080516001600160a01b039093168352602083019190915201610166565b6101dc610281366004611094565b610773565b34801561029257600080fd5b506101dc6102a13660046110f2565b610793565b3480156102b257600080fd5b506101b16102c136600461103a565b6107e6565b3480156102d257600080fd5b506101f36102e1366004611164565b6107f1565b3480156102f257600080fd5b506101dc610837565b34801561030757600080fd5b50600b546001600160a01b03166101b1565b34801561032557600080fd5b506101dc6103343660046110f2565b61084b565b34801561034557600080fd5b50610184610892565b34801561035a57600080fd5b506101dc61036936600461117f565b6108a1565b6101dc61037c3660046111d1565b61090d565b34801561038d57600080fd5b5061018461039c36600461103a565b61094e565b3480156103ad57600080fd5b506101846109d2565b3480156103c257600080fd5b5061015a6103d13660046112ad565b6109e1565b3480156103e257600080fd5b506101dc6103f1366004611164565b610a0f565b600061040182610a4d565b92915050565b606060028054610416906112e0565b80601f0160208091040260200160405190810160405280929190818152602001828054610442906112e0565b801561048f5780601f106104645761010080835404028352916020019161048f565b820191906000526020600020905b81548152906001019060200180831161047257829003601f168201915b5050505050905090565b60006104a482610a82565b6104b8576104b86333d1c03960e21b610ac7565b506000908152600660205260409020546001600160a01b031690565b6104e082826001610ad1565b5050565b60006104ef82610b74565b6001600160a01b0394851694909150811684146105155761051562a1148160e81b610ac7565b60008281526006602052604090208054338082146001600160a01b038816909114176105595761054586336109e1565b61055957610559632ce44b5f60e11b610ac7565b801561056457600082555b6001600160a01b038681166000908152600560205260408082208054600019019055918716808252919020805460010190554260a01b17600160e11b17600085815260046020526040812091909155600160e11b841690036105f6576001840160008181526004602052604081205490036105f45760005481146105f45760008181526004602052604090208490555b505b6001600160a01b0385168481887fddf252ad1be2c89b69c2b068fc378daa952ba7f163c4a11628f55a4df523b3ef600080a48060000361064057610640633a954ecd60e21b610ac7565b50505050505050565b610651610c0a565b6000811161069d5760405162461bcd60e51b815260206004820152601460248201527305175616e74697479206d757374206265203e20360641b60448201526064015b60405180910390fd5b6106a78282610c37565b816001600160a01b03167f6174e73d7eb2fee6c482f87f81961b83cfa577f50c963bd1516f282497260fcd826040516106e291815260200190565b60405180910390a25050565b6000828152600a6020526040812080548291906001600160a01b03811690600160a01b90046001600160601b0316816107425750506009546001600160a01b03811690600160a01b90046001600160601b03165b600061271061075a6001600160601b03841689611330565b6107649190611347565b92989297509195505050505050565b61078e8383836040518060200160405280600081525061090d565b505050565b61079b610c0a565b600c6107a88284836113b7565b507f5411e8ebf1636d9e83d5fc4900bf80cbac82e8790da2a4c94db4895e889eedf682826040516107da929190611478565b60405180910390a15050565b600061040182610b74565b60006001600160a01b038216610811576108116323d3ad8160e21b610ac7565b506001600160a01b031660009081526005602052604090205467ffffffffffffffff1690565b61083f610c0a565b6108496000610cf6565b565b610853610c0a565b600d6108608284836113b7565b507fd5ee5eaf65263bab5d569890714d123ad48a9e54409d35e71d374f3dd300bba082826040516107da929190611478565b606060038054610416906112e0565b3360008181526007602090815260408083206001600160a01b03871680855290835292819020805460ff191686151590811790915590519081529192917f17307eab39ab6107e8899845ad3d59bd9653f200f220920489ca2b5937696c31910160405180910390a35050565b6109188484846104e4565b6001600160a01b0383163b156109485761093484848484610d48565b610948576109486368d2bf6b60e11b610ac7565b50505050565b606061095982610a82565b61097657604051630a14c4b560e41b815260040160405180910390fd5b6000610980610e2a565b905080516000036109a057604051806020016040528060008152506109cb565b806109aa84610e39565b6040516020016109bb9291906114a7565b6040516020818303038152906040525b9392505050565b6060600d8054610416906112e0565b6001600160a01b03918216600090815260076020908152604080832093909416825291909152205460ff1690565b610a17610c0a565b6001600160a01b038116610a4157604051631e4fbdf760e01b815260006004820152602401610694565b610a4a81610cf6565b50565b60006001600160e01b0319821663152a902d60e11b148061040157506301ffc9a760e01b6001600160e01b0319831614610401565b60008054821015610ac25760005b5060008281526004602052604081205490819003610ab857610ab1836114e6565b9250610a90565b600160e01b161590505b919050565b8060005260046000fd5b6000610adc836107e6565b9050818015610af45750336001600160a01b03821614155b15610b1757610b0381336109e1565b610b1757610b176367d9dca160e11b610ac7565b60008381526006602052604080822080546001600160a01b0319166001600160a01b0388811691821790925591518693918516917f8c5be1e5ebec7d5bd14f71427d1e84f3dd0314c0f7b2291e5b200ac8c7c3b92591a450505050565b60008181526004602052604090205480600003610be7576000548210610ba457610ba4636f96cda160e11b610ac7565b5b50600019016000818152600460205260409020548015610ba557600160e01b8116600003610bd257919050565b610be2636f96cda160e11b610ac7565b610ba5565b600160e01b8116600003610bfa57919050565b610ac2636f96cda160e11b610ac7565b600b546001600160a01b031633146108495760405163118cdaa760e01b8152336004820152602401610694565b6000805490829003610c5357610c5363b562e8dd60e01b610ac7565b60008181526004602090815260408083206001600160a01b0387164260a01b6001881460e11b17811790915580845260059092528220805468010000000000000001860201905590819003610cb157610cb1622e076360e81b610ac7565b818301825b808360007fddf252ad1be2c89b69c2b068fc378daa952ba7f163c4a11628f55a4df523b3ef600080a4818160010191508103610cb6575060005550505050565b600b80546001600160a01b038381166001600160a01b0319831681179093556040519116919082907f8be0079c531659141344cd1fd0a4f28419497f9722a3daafe3b4186f6b6457e090600090a35050565b604051630a85bd0160e11b81526000906001600160a01b0385169063150b7a0290610d7d9033908990889088906004016114fd565b6020604051808303816000875af1925050508015610db8575060408051601f3d908101601f19168201909252610db59181019061153a565b60015b610e0d573d808015610de6576040519150601f19603f3d011682016040523d82523d6000602084013e610deb565b606091505b508051600003610e0557610e056368d2bf6b60e11b610ac7565b805181602001fd5b6001600160e01b031916630a85bd0160e11b149050949350505050565b6060600c8054610416906112e0565b60606000610e4683610ecc565b600101905060008167ffffffffffffffff811115610e6657610e666111bb565b6040519080825280601f01601f191660200182016040528015610e90576020820181803683370190505b5090508181016020015b600019016f181899199a1a9b1b9c1cb0b131b232b360811b600a86061a8153600a8504945084610e9a57509392505050565b60008072184f03e93ff9f4daa797ed6e38ed64bf6a1f0160401b8310610f0b5772184f03e93ff9f4daa797ed6e38ed64bf6a1f0160401b830492506040015b6d04ee2d6d415b85acef81000000008310610f37576d04ee2d6d415b85acef8100000000830492506020015b662386f26fc100008310610f5557662386f26fc10000830492506010015b6305f5e1008310610f6d576305f5e100830492506008015b6127108310610f8157612710830492506004015b60648310610f93576064830492506002015b600a83106104015760010192915050565b6001600160e01b031981168114610a4a57600080fd5b600060208284031215610fcc57600080fd5b81356109cb81610fa4565b60005b83811015610ff2578181015183820152602001610fda565b50506000910152565b60008151808452611013816020860160208601610fd7565b601f01601f19169290920160200192915050565b6020815260006109cb6020830184610ffb565b60006020828403121561104c57600080fd5b5035919050565b80356001600160a01b0381168114610ac257600080fd5b6000806040838503121561107d57600080fd5b61108683611053565b946020939093013593505050565b6000806000606084860312156110a957600080fd5b6110b284611053565b92506110c060208501611053565b9150604084013590509250925092565b600080604083850312156110e357600080fd5b50508035926020909101359150565b6000806020838503121561110557600080fd5b823567ffffffffffffffff8082111561111d57600080fd5b818501915085601f83011261113157600080fd5b81358181111561114057600080fd5b86602082850101111561115257600080fd5b60209290920196919550909350505050565b60006020828403121561117657600080fd5b6109cb82611053565b6000806040838503121561119257600080fd5b61119b83611053565b9150602083013580151581146111b057600080fd5b809150509250929050565b634e487b7160e01b600052604160045260246000fd5b600080600080608085870312156111e757600080fd5b6111f085611053565b93506111fe60208601611053565b925060408501359150606085013567ffffffffffffffff8082111561122257600080fd5b818701915087601f83011261123657600080fd5b813581811115611248576112486111bb565b604051601f8201601f19908116603f01168101908382118183101715611270576112706111bb565b816040528281528a602084870101111561128957600080fd5b82602086016020830137600060208483010152809550505050505092959194509250565b600080604083850312156112c057600080fd5b6112c983611053565b91506112d760208401611053565b90509250929050565b600181811c908216806112f457607f821691505b60208210810361131457634e487b7160e01b600052602260045260246000fd5b50919050565b634e487b7160e01b600052601160045260246000fd5b80820281158282048414176104015761040161131a565b60008261136457634e487b7160e01b600052601260045260246000fd5b500490565b601f82111561078e57600081815260208120601f850160051c810160208610156113905750805b601f850160051c820191505b818110156113af5782815560010161139c565b505050505050565b67ffffffffffffffff8311156113cf576113cf6111bb565b6113e3836113dd83546112e0565b83611369565b6000601f84116001811461141757600085156113ff5750838201355b600019600387901b1c1916600186901b178355611471565b600083815260209020601f19861690835b828110156114485786850135825560209485019460019092019101611428565b50868210156114655760001960f88860031b161c19848701351681555b505060018560011b0183555b5050505050565b60208152816020820152818360408301376000818301604090810191909152601f909201601f19160101919050565b600083516114b9818460208801610fd7565b8351908301906114cd818360208801610fd7565b64173539b7b760d91b9101908152600501949350505050565b6000816114f5576114f561131a565b506000190190565b6001600160a01b038581168252841660208201526040810183905260806060820181905260009061153090830184610ffb565b9695505050505050565b60006020828403121561154c57600080fd5b81516109cb81610fa456fea264697066735822122052e76c36c570bd3f360dbc627e9f594ad04009010be6fce3d5b6825edc5b089664736f6c63430008140033a2646970667358221220fc8869495fb88b3cbe73a8a372b52d67ec97478a9dccd19df8cd15d04ea6381d64736f6c63430008140033",
  "linkReferences": {},
  "deployedLinkReferences": {}
}