{
  "_format": "hh-sol-artifact-1",
  "contractName": "ZexToken",
  "sourceName": "contracts/ZexToken.sol",
  "abi": [
    {
      "inputs": [
        {
          "internalType": "address",
          "name": "initialOwner",
          "type": "address"
        }
      ],
      "stateMutability": "nonpayable",
      "type": "constructor"
    },
    {
      "inputs": [
        {
          "internalType": "address",
          "name": "spender",
          "type": "address"
        },
        {
          "internalType": "uint256",
          "name": "allowance",
          "type": "uint256"
        },
        {
          "internalType": "uint256",
          "name": "needed",
          "type": "uint256"
        }
      ],
      "name": "ERC20InsufficientAllowance",
      "type": "error"
    },
    {
      "inputs": [
        {
          "internalType": "address",
          "name": "sender",
          "type": "address"
        },
        {
          "internalType": "uint256",
          "name": "balance",
          "type": "uint256"
        },
        {
          "internalType": "uint256",
          "name": "needed",
          "type": "uint256"
        }
      ],
      "name": "ERC20InsufficientBalance",
      "type": "error"
    },
    {
      "inputs": [
        {
          "internalType": "address",
          "name": "approver",
          "type": "address"
        }
      ],
      "name": "ERC20InvalidApprover",
      "type": "error"
    },
    {
      "inputs": [
        {
          "internalType": "address",
          "name": "receiver",
          "type": "address"
        }
      ],
      "name": "ERC20InvalidReceiver",
      "type": "error"
    },
    {
      "inputs": [
        {
          "internalType": "address",
          "name": "sender",
          "type": "address"
        }
      ],
      "name": "ERC20InvalidSender",
      "type": "error"
    },
    {
      "inputs": [
        {
          "internalType": "address",
          "name": "spender",
          "type": "address"
        }
      ],
      "name": "ERC20InvalidSpender",
      "type": "error"
    },
    {
      "inputs": [
        {
          "internalType": "address",
          "name": "owner",
          "type": "address"
        }
      ],
      "name": "OwnableInvalidOwner",
      "type": "error"
    },
    {
      "inputs": [
        {
          "internalType": "address",
          "name": "account",
          "type": "address"
        }
      ],
      "name": "OwnableUnauthorizedAccount",
      "type": "error"
    },
    {
      "anonymous": false,
      "inputs": [
        {
          "indexed": true,
          "internalType": "address",
          "name": "owner",
          "type": "address"
        },
        {
          "indexed": true,
          "internalType": "address",
          "name": "spender",
          "type": "address"
        },
        {
          "indexed": false,
          "internalType": "uint256",
          "name": "value",
          "type": "uint256"
        }
      ],
      "name": "Approval",
      "type": "event"
    },
    {
      "anonymous": false,
      "inputs": [
        {
          "indexed": true,
          "internalType": "address",
          "name": "previousOwner",
          "type": "address"
        },
        {
          "indexed": true,
          "internalType": "address",
          "name": "newOwner",
          "type": "address"
        }
      ],
      "name": "OwnershipTransferred",
      "type": "event"
    },
    {
      "anonymous": false,
      "inputs": [
        {
          "indexed": true,
          "internalType": "address",
          "name": "from",
          "type": "address"
        },
        {
          "indexed": true,
          "internalType": "address",
          "name": "to",
          "type": "address"
        },
        {
          "indexed": false,
          "internalType": "uint256",
          "name": "value",
          "type": "uint256"
        }
      ],
      "name": "Transfer",
      "type": "event"
    },
    {
      "inputs": [],
      "name": "MAX_SUPPLY",
      "outputs": [
        {
          "internalType": "uint256",
          "name": "",
          "type": "uint256"
        }
      ],
      "stateMutability": "view",
      "type": "function"
    },
    {
      "inputs": [
        {
          "internalType": "address",
          "name": "owner",
          "type": "address"
        },
        {
          "internalType": "address",
          "name": "spender",
          "type": "address"
        }
      ],
      "name": "allowance",
      "outputs": [
        {
          "internalType": "uint256",
          "name": "",
          "type": "uint256"
        }
      ],
      "stateMutability": "view",
      "type": "function"
    },
    {
      "inputs": [
        {
          "internalType": "address",
          "name": "spender",
          "type": "address"
        },
        {
          "internalType": "uint256",
          "name": "value",
          "type": "uint256"
        }
      ],
      "name": "approve",
      "outputs": [
        {
          "internalType": "bool",
          "name": "",
          "type": "bool"
        }
      ],
      "stateMutability": "nonpayable",
      "type": "function"
    },
    {
      "inputs": [
        {
          "internalType": "address",
          "name": "account",
          "type": "address"
        }
      ],
      "name": "balanceOf",
      "outputs": [
        {
          "internalType": "uint256",
          "name": "",
          "type": "uint256"
        }
      ],
      "stateMutability": "view",
      "type": "function"
    },
    {
      "inputs": [
        {
          "internalType": "uint256",
          "name": "value",
          "type": "uint256"
        }
      ],
      "name": "burn",
      "outputs": [],
      "stateMutability": "nonpayable",
      "type": "function"
    },
    {
      "inputs": [
        {
          "internalType": "address",
          "name": "account",
          "type": "address"
        },
        {
          "internalType": "uint256",
          "name": "value",
          "type": "uint256"
        }
      ],
      "name": "burnFrom",
      "outputs": [],
      "stateMutability": "nonpayable",
      "type": "function"
    },
    {
      "inputs": [],
      "name": "decimals",
      "outputs": [
        {
          "internalType": "uint8",
          "name": "",
          "type": "uint8"
        }
      ],
      "stateMutability": "view",
      "type": "function"
    },
    {
      "inputs": [
        {
          "internalType": "address",
          "name": "",
          "type": "address"
        }
      ],
      "name": "isExcludedFromFee",
      "outputs": [
        {
          "internalType": "bool",
          "name": "",
          "type": "bool"
        }
      ],
      "stateMutability": "view",
      "type": "function"
    },
    {
      "inputs": [],
      "name": "name",
      "outputs": [
        {
          "internalType": "string",
          "name": "",
          "type": "string"
        }
      ],
      "stateMutability": "view",
      "type": "function"
    },
    {
      "inputs": [],
      "name": "owner",
      "outputs": [
        {
          "internalType": "address",
          "name": "",
          "type": "address"
        }
      ],
      "stateMutability": "view",
      "type": "function"
    },
    {
      "inputs": [],
      "name": "renounceOwnership",
      "outputs": [],
      "stateMutability": "nonpayable",
      "type": "function"
    },
    {
      "inputs": [
        {
          "internalType": "address",
          "name": "account",
          "type": "address"
        },
        {
          "internalType": "bool",
          "name": "excluded",
          "type": "bool"
        }
      ],
      "name": "setExcludeFromFee",
      "outputs": [],
      "stateMutability": "nonpayable",
      "type": "function"
    },
    {
      "inputs": [
        {
          "internalType": "uint256",
          "name": "basisPoints",
          "type": "uint256"
        }
      ],
      "name": "setTransferFee",
      "outputs": [],
      "stateMutability": "nonpayable",
      "type": "function"
    },
    {
      "inputs": [],
      "name": "symbol",
      "outputs": [
        {
          "internalType": "string",
          "name": "",
          "type": "string"
        }
      ],
      "stateMutability": "view",
      "type": "function"
    },
    {
      "inputs": [],
      "name": "totalSupply",
      "outputs": [
        {
          "internalType": "uint256",
          "name": "",
          "type": "uint256"
        }
      ],
      "stateMutability": "view",
      "type": "function"
    },
    {
      "inputs": [
        {
          "internalType": "address",
          "name": "to",
          "type": "address"
        },
        {
          "internalType": "uint256",
          "name": "value",
          "type": "uint256"
        }
      ],
      "name": "transfer",
      "outputs": [
        {
          "internalType": "bool",
          "name": "",
          "type": "bool"
        }
      ],
      "stateMutability": "nonpayable",
      "type": "function"
    },
    {
      "inputs": [],
      "name": "transferFeeBasisPoints",
      "outputs": [
        {
          "internalType": "uint256",
          "name": "",
          "type": "uint256"
        }
      ],
      "stateMutability": "view",
      "type": "function"
    },
    {
      "inputs": [
        {
          "internalType": "address",
          "name": "from",
          "type": "address"
        },
        {
          "internalType": "address",
          "name": "to",
          "type": "address"
        },
        {
          "internalType": "uint256",
          "name": "value",
          "type": "uint256"
        }
      ],
      "name": "transferFrom",
      "outputs": [
        {
          "internalType": "bool",
          "name": "",
          "type": "bool"
        }
      ],
      "stateMutability": "nonpayable",
      "type": "function"
    },
    {
      "inputs": [
        {
          "internalType": "address",
          "name": "newOwner",
          "type": "address"
        }
      ],
      "name": "transferOwnership",
      "outputs": [],
      "stateMutability": "nonpayable",
      "type": "function"
    }
  ],
  "bytecode": "0x608060405260056006553480156200001657600080fd5b5060405162001192380380620011928339810160408190526200003991620003ca565b80604051806040016040528060088152602001672d32bc2a37b5b2b760c11b815250604051806040016040528060038152602001620b48ab60eb1b8152508160039081620000889190620004a0565b506004620000978282620004a0565b5050506001600160a01b038116620000ca57604051631e4fbdf760e01b8152600060048201526024015b60405180910390fd5b620000d5816200012d565b506001600160a01b0381166000908152600760205260408082208054600160ff199182168117909255308452919092208054909116909117905562000126816a52b7d2dcc80cd2e40000006200017f565b50620005f1565b600580546001600160a01b038381166001600160a01b0319831681179093556040519116919082907f8be0079c531659141344cd1fd0a4f28419497f9722a3daafe3b4186f6b6457e090600090a35050565b6001600160a01b038216620001ab5760405163ec442f0560e01b815260006004820152602401620000c1565b620001b960008383620001bd565b5050565b6001600160a01b0383161580620001db57506001600160a01b038216155b80620001ff57506001600160a01b03831660009081526007602052604090205460ff165b806200022357506001600160a01b03821660009081526007602052604090205460ff165b156200023b576200023683838362000297565b505050565b60006103e86006548362000250919062000582565b6200025c9190620005a2565b905060006200026c8284620005c5565b905081156200028357620002838560008462000297565b6200029085858362000297565b5050505050565b6001600160a01b038316620002c6578060026000828254620002ba9190620005db565b909155506200033a9050565b6001600160a01b038316600090815260208190526040902054818110156200031b5760405163391434e360e21b81526001600160a01b03851660048201526024810182905260448101839052606401620000c1565b6001600160a01b03841660009081526020819052604090209082900390555b6001600160a01b038216620003585760028054829003905562000377565b6001600160a01b03821660009081526020819052604090208054820190555b816001600160a01b0316836001600160a01b03167fddf252ad1be2c89b69c2b068fc378daa952ba7f163c4a11628f55a4df523b3ef83604051620003bd91815260200190565b60405180910390a3505050565b600060208284031215620003dd57600080fd5b81516001600160a01b0381168114620003f557600080fd5b9392505050565b634e487b7160e01b600052604160045260246000fd5b600181811c908216806200042757607f821691505b6020821081036200044857634e487b7160e01b600052602260045260246000fd5b50919050565b601f8211156200023657600081815260208120601f850160051c81016020861015620004775750805b601f850160051c820191505b81811015620004985782815560010162000483565b505050505050565b81516001600160401b03811115620004bc57620004bc620003fc565b620004d481620004cd845462000412565b846200044e565b602080601f8311600181146200050c5760008415620004f35750858301515b600019600386901b1c1916600185901b17855562000498565b600085815260208120601f198616915b828110156200053d578886015182559484019460019091019084016200051c565b50858210156200055c5787850151600019600388901b60f8161c191681555b5050505050600190811b01905550565b634e487b7160e01b600052601160045260246000fd5b80820281158282048414176200059c576200059c6200056c565b92915050565b600082620005c057634e487b7160e01b600052601260045260246000fd5b500490565b818103818111156200059c576200059c6200056c565b808201808211156200059c576200059c6200056c565b610b9180620006016000396000f3fe608060405234801561001057600080fd5b50600436106101215760003560e01c806370a08231116100ad57806395d89b411161007157806395d89b4114610260578063a9059cbb14610268578063af9549e01461027b578063dd62ed3e1461028e578063f2fde38b146102c757600080fd5b806370a08231146101ee578063715018a61461021757806379cc67901461021f5780638da5cb5b146102325780638f02bb5b1461024d57600080fd5b806323b872dd116100f457806323b872dd14610182578063313ce5671461019557806332cb6b0c146101a457806342966c68146101b65780635342acb4146101cb57600080fd5b806306fdde0314610126578063095ea7b31461014457806318160ddd14610167578063183767da14610179575b600080fd5b61012e6102da565b60405161013b9190610932565b60405180910390f35b61015761015236600461099c565b61036c565b604051901515815260200161013b565b6002545b60405190815260200161013b565b61016b60065481565b6101576101903660046109c6565b610386565b6040516012815260200161013b565b61016b6a52b7d2dcc80cd2e400000081565b6101c96101c4366004610a02565b6103aa565b005b6101576101d9366004610a1b565b60076020526000908152604090205460ff1681565b61016b6101fc366004610a1b565b6001600160a01b031660009081526020819052604090205490565b6101c96103b7565b6101c961022d36600461099c565b6103cb565b6005546040516001600160a01b03909116815260200161013b565b6101c961025b366004610a02565b6103e4565b61012e61043f565b61015761027636600461099c565b61044e565b6101c9610289366004610a3d565b61045c565b61016b61029c366004610a79565b6001600160a01b03918216600090815260016020908152604080832093909416825291909152205490565b6101c96102d5366004610a1b565b61048f565b6060600380546102e990610aac565b80601f016020809104026020016040519081016040528092919081815260200182805461031590610aac565b80156103625780601f1061033757610100808354040283529160200191610362565b820191906000526020600020905b81548152906001019060200180831161034557829003601f168201915b5050505050905090565b60003361037a8185856104ca565b60019150505b92915050565b6000336103948582856104dc565b61039f85858561055b565b506001949350505050565b6103b433826105ba565b50565b6103bf6105f0565b6103c9600061061d565b565b6103d68233836104dc565b6103e082826105ba565b5050565b6103ec6105f0565b606481111561043a5760405162461bcd60e51b81526020600482015260156024820152745461782063616e6e6f74206578636565642031302560581b60448201526064015b60405180910390fd5b600655565b6060600480546102e990610aac565b60003361037a81858561055b565b6104646105f0565b6001600160a01b03919091166000908152600760205260409020805460ff1916911515919091179055565b6104976105f0565b6001600160a01b0381166104c157604051631e4fbdf760e01b815260006004820152602401610431565b6103b48161061d565b6104d7838383600161066f565b505050565b6001600160a01b03838116600090815260016020908152604080832093861683529290522054600019811015610555578181101561054657604051637dc7a0d960e11b81526001600160a01b03841660048201526024810182905260448101839052606401610431565b6105558484848403600061066f565b50505050565b6001600160a01b03831661058557604051634b637e8f60e11b815260006004820152602401610431565b6001600160a01b0382166105af5760405163ec442f0560e01b815260006004820152602401610431565b6104d7838383610744565b6001600160a01b0382166105e457604051634b637e8f60e11b815260006004820152602401610431565b6103e082600083610744565b6005546001600160a01b031633146103c95760405163118cdaa760e01b8152336004820152602401610431565b600580546001600160a01b038381166001600160a01b0319831681179093556040519116919082907f8be0079c531659141344cd1fd0a4f28419497f9722a3daafe3b4186f6b6457e090600090a35050565b6001600160a01b0384166106995760405163e602df0560e01b815260006004820152602401610431565b6001600160a01b0383166106c357604051634a1406b160e11b815260006004820152602401610431565b6001600160a01b038085166000908152600160209081526040808320938716835292905220829055801561055557826001600160a01b0316846001600160a01b03167f8c5be1e5ebec7d5bd14f71427d1e84f3dd0314c0f7b2291e5b200ac8c7c3b9258460405161073691815260200190565b60405180910390a350505050565b6001600160a01b038316158061076157506001600160a01b038216155b8061078457506001600160a01b03831660009081526007602052604090205460ff165b806107a757506001600160a01b03821660009081526007602052604090205460ff165b156107b7576104d7838383610808565b60006103e8600654836107ca9190610afc565b6107d49190610b13565b905060006107e28284610b35565b905081156107f6576107f685600084610808565b610801858583610808565b5050505050565b6001600160a01b0383166108335780600260008282546108289190610b48565b909155506108a59050565b6001600160a01b038316600090815260208190526040902054818110156108865760405163391434e360e21b81526001600160a01b03851660048201526024810182905260448101839052606401610431565b6001600160a01b03841660009081526020819052604090209082900390555b6001600160a01b0382166108c1576002805482900390556108e0565b6001600160a01b03821660009081526020819052604090208054820190555b816001600160a01b0316836001600160a01b03167fddf252ad1be2c89b69c2b068fc378daa952ba7f163c4a11628f55a4df523b3ef8360405161092591815260200190565b60405180910390a3505050565b600060208083528351808285015260005b8181101561095f57858101830151858201604001528201610943565b506000604082860101526040601f19601f8301168501019250505092915050565b80356001600160a01b038116811461099757600080fd5b919050565b600080604083850312156109af57600080fd5b6109b883610980565b946020939093013593505050565b6000806000606084860312156109db57600080fd5b6109e484610980565b92506109f260208501610980565b9150604084013590509250925092565b600060208284031215610a1457600080fd5b5035919050565b600060208284031215610a2d57600080fd5b610a3682610980565b9392505050565b60008060408385031215610a5057600080fd5b610a5983610980565b915060208301358015158114610a6e57600080fd5b809150509250929050565b60008060408385031215610a8c57600080fd5b610a9583610980565b9150610aa360208401610980565b90509250929050565b600181811c90821680610ac057607f821691505b602082108103610ae057634e487b7160e01b600052602260045260246000fd5b50919050565b634e487b7160e01b600052601160045260246000fd5b808202811582820484141761038057610380610ae6565b600082610b3057634e487b7160e01b600052601260045260246000fd5b500490565b8181038181111561038057610380610ae6565b8082018082111561038057610380610ae656fea2646970667358221220685970a6b32bffdba6e5cc75d34f6621884cf2db0a81278586d9d2530832a96564736f6c63430008140033",
  "linkReferences": {},
  "deployedLinkReferences": {}
}