{
  "_format": "hh-sol-artifact-1",
  "contractName": "ZexAIEcosystemNFT",
  "sourceName": "contracts/ZexAIEcosystemNFT.sol",
  "abi": [
    {
      "inputs": [
        {
          "internalType": "address",
          "name": "initialOwner",
          "type": "address"
        },
        {
          "internalType": "address",
          "name": "_zexTokenAddress",
          "type": "address"
        },
        {
          "internalType": "uint256",
          "name": "_initialMintFee",
          "type": "uint256"
        }
      ],
      "stateMutability": "nonpayable",
      "type": "constructor"
    },
    {
      "inputs": [
        {
          "internalType": "address",
          "name": "sender",
          "type": "address"
        },
        {
          "internalType": "uint256",
          "name": "balance",
          "type": "uint256"
        },
        {
          "internalType": "uint256",
          "name": "needed",
          "type": "uint256"
        },
        {
          "internalType": "uint256",
          "name": "tokenId",
          "type": "uint256"
        }
      ],
      "name": "ERC1155InsufficientBalance",
      "type": "error"
    },
    {
      "inputs": [
        {
          "internalType": "address",
          "name": "approver",
          "type": "address"
        }
      ],
      "name": "ERC1155InvalidApprover",
      "type": "error"
    },
    {
      "inputs": [
        {
          "internalType": "uint256",
          "name": "idsLength",
          "type": "uint256"
        },
        {
          "internalType": "uint256",
          "name": "valuesLength",
          "type": "uint256"
        }
      ],
      "name": "ERC1155InvalidArrayLength",
      "type": "error"
    },
    {
      "inputs": [
        {
          "internalType": "address",
          "name": "operator",
          "type": "address"
        }
      ],
      "name": "ERC1155InvalidOperator",
      "type": "error"
    },
    {
      "inputs": [
        {
          "internalType": "address",
          "name": "receiver",
          "type": "address"
        }
      ],
      "name": "ERC1155InvalidReceiver",
      "type": "error"
    },
    {
      "inputs": [
        {
          "internalType": "address",
          "name": "sender",
          "type": "address"
        }
      ],
      "name": "ERC1155InvalidSender",
      "type": "error"
    },
    {
      "inputs": [
        {
          "internalType": "address",
          "name": "operator",
          "type": "address"
        },
        {
          "internalType": "address",
          "name": "owner",
          "type": "address"
        }
      ],
      "name": "ERC1155MissingApprovalForAll",
      "type": "error"
    },
    {
      "inputs": [
        {
          "internalType": "address",
          "name": "owner",
          "type": "address"
        }
      ],
      "name": "OwnableInvalidOwner",
      "type": "error"
    },
    {
      "inputs": [
        {
          "internalType": "address",
          "name": "account",
          "type": "address"
        }
      ],
      "name": "OwnableUnauthorizedAccount",
      "type": "error"
    },
    {
      "anonymous": false,
      "inputs": [
        {
          "indexed": true,
          "internalType": "address",
          "name": "account",
          "type": "address"
        },
        {
          "indexed": true,
          "internalType": "address",
          "name": "operator",
          "type": "address"
        },
        {
          "indexed": false,
          "internalType": "bool",
          "name": "approved",
          "type": "bool"
        }
      ],
      "name": "ApprovalForAll",
      "type": "event"
    },
    {
      "anonymous": false,
      "inputs": [
        {
          "indexed": false,
          "internalType": "uint256",
          "name": "newFee",
          "type": "uint256"
        }
      ],
      "name": "MintFeeUpdated",
      "type": "event"
    },
    {
      "anonymous": false,
      "inputs": [
        {
          "indexed": true,
          "internalType": "address",
          "name": "minter",
          "type": "address"
        },
        {
          "indexed": true,
          "internalType": "uint256",
          "name": "tokenId",
          "type": "uint256"
        },
        {
          "indexed": false,
          "internalType": "string",
          "name": "uri",
          "type": "string"
        },
        {
          "indexed": false,
          "internalType": "uint256",
          "name": "amount",
          "type": "uint256"
        }
      ],
      "name": "NFTMinted",
      "type": "event"
    },
    {
      "anonymous": false,
      "inputs": [
        {
          "indexed": true,
          "internalType": "address",
          "name": "previousOwner",
          "type": "address"
        },
        {
          "indexed": true,
          "internalType": "address",
          "name": "newOwner",
          "type": "address"
        }
      ],
      "name": "OwnershipTransferred",
      "type": "event"
    },
    {
      "anonymous": false,
      "inputs": [
        {
          "indexed": true,
          "internalType": "address",
          "name": "operator",
          "type": "address"
        },
        {
          "indexed": true,
          "internalType": "address",
          "name": "from",
          "type": "address"
        },
        {
          "indexed": true,
          "internalType": "address",
          "name": "to",
          "type": "address"
        },
        {
          "indexed": false,
          "internalType": "uint256[]",
          "name": "ids",
          "type": "uint256[]"
        },
        {
          "indexed": false,
          "internalType": "uint256[]",
          "name": "values",
          "type": "uint256[]"
        }
      ],
      "name": "TransferBatch",
      "type": "event"
    },
    {
      "anonymous": false,
      "inputs": [
        {
          "indexed": true,
          "internalType": "address",
          "name": "operator",
          "type": "address"
        },
        {
          "indexed": true,
          "internalType": "address",
          "name": "from",
          "type": "address"
        },
        {
          "indexed": true,
          "internalType": "address",
          "name": "to",
          "type": "address"
        },
        {
          "indexed": false,
          "internalType": "uint256",
          "name": "id",
          "type": "uint256"
        },
        {
          "indexed": false,
          "internalType": "uint256",
          "name": "value",
          "type": "uint256"
        }
      ],
      "name": "TransferSingle",
      "type": "event"
    },
    {
      "anonymous": false,
      "inputs": [
        {
          "indexed": false,
          "internalType": "address",
          "name": "newTreasury",
          "type": "address"
        }
      ],
      "name": "TreasuryUpdated",
      "type": "event"
    },
    {
      "anonymous": false,
      "inputs": [
        {
          "indexed": false,
          "internalType": "string",
          "name": "value",
          "type": "string"
        },
        {
          "indexed": true,
          "internalType": "uint256",
          "name": "id",
          "type": "uint256"
        }
      ],
      "name": "URI",
      "type": "event"
    },
    {
      "inputs": [
        {
          "internalType": "address",
          "name": "account",
          "type": "address"
        },
        {
          "internalType": "uint256",
          "name": "id",
          "type": "uint256"
        }
      ],
      "name": "balanceOf",
      "outputs": [
        {
          "internalType": "uint256",
          "name": "",
          "type": "uint256"
        }
      ],
      "stateMutability": "view",
      "type": "function"
    },
    {
      "inputs": [
        {
          "internalType": "address[]",
          "name": "accounts",
          "type": "address[]"
        },
        {
          "internalType": "uint256[]",
          "name": "ids",
          "type": "uint256[]"
        }
      ],
      "name": "balanceOfBatch",
      "outputs": [
        {
          "internalType": "uint256[]",
          "name": "",
          "type": "uint256[]"
        }
      ],
      "stateMutability": "view",
      "type": "function"
    },
    {
      "inputs": [],
      "name": "contractURI",
      "outputs": [
        {
          "internalType": "string",
          "name": "",
          "type": "string"
        }
      ],
      "stateMutability": "view",
      "type": "function"
    },
    {
      "inputs": [
        {
          "internalType": "address",
          "name": "account",
          "type": "address"
        },
        {
          "internalType": "address",
          "name": "operator",
          "type": "address"
        }
      ],
      "name": "isApprovedForAll",
      "outputs": [
        {
          "internalType": "bool",
          "name": "",
          "type": "bool"
        }
      ],
      "stateMutability": "view",
      "type": "function"
    },
    {
      "inputs": [],
      "name": "mintFee",
      "outputs": [
        {
          "internalType": "uint256",
          "name": "",
          "type": "uint256"
        }
      ],
      "stateMutability": "view",
      "type": "function"
    },
    {
      "inputs": [
        {
          "internalType": "string",
          "name": "metadataURI",
          "type": "string"
        },
        {
          "internalType": "uint256",
          "name": "amount",
          "type": "uint256"
        }
      ],
      "name": "mintWithZex",
      "outputs": [],
      "stateMutability": "nonpayable",
      "type": "function"
    },
    {
      "inputs": [],
      "name": "owner",
      "outputs": [
        {
          "internalType": "address",
          "name": "",
          "type": "address"
        }
      ],
      "stateMutability": "view",
      "type": "function"
    },
    {
      "inputs": [],
      "name": "renounceOwnership",
      "outputs": [],
      "stateMutability": "nonpayable",
      "type": "function"
    },
    {
      "inputs": [
        {
          "internalType": "address",
          "name": "from",
          "type": "address"
        },
        {
          "internalType": "address",
          "name": "to",
          "type": "address"
        },
        {
          "internalType": "uint256[]",
          "name": "ids",
          "type": "uint256[]"
        },
        {
          "internalType": "uint256[]",
          "name": "values",
          "type": "uint256[]"
        },
        {
          "internalType": "bytes",
          "name": "data",
          "type": "bytes"
        }
      ],
      "name": "safeBatchTransferFrom",
      "outputs": [],
      "stateMutability": "nonpayable",
      "type": "function"
    },
    {
      "inputs": [
        {
          "internalType": "address",
          "name": "from",
          "type": "address"
        },
        {
          "internalType": "address",
          "name": "to",
          "type": "address"
        },
        {
          "internalType": "uint256",
          "name": "id",
          "type": "uint256"
        },
        {
          "internalType": "uint256",
          "name": "value",
          "type": "uint256"
        },
        {
          "internalType": "bytes",
          "name": "data",
          "type": "bytes"
        }
      ],
      "name": "safeTransferFrom",
      "outputs": [],
      "stateMutability": "nonpayable",
      "type": "function"
    },
    {
      "inputs": [
        {
          "internalType": "address",
          "name": "operator",
          "type": "address"
        },
        {
          "internalType": "bool",
          "name": "approved",
          "type": "bool"
        }
      ],
      "name": "setApprovalForAll",
      "outputs": [],
      "stateMutability": "nonpayable",
      "type": "function"
    },
    {
      "inputs": [
        {
          "internalType": "string",
          "name": "newURI",
          "type": "string"
        }
      ],
      "name": "setContractURI",
      "outputs": [],
      "stateMutability": "nonpayable",
      "type": "function"
    },
    {
      "inputs": [
        {
          "internalType": "uint256",
          "name": "newFee",
          "type": "uint256"
        }
      ],
      "name": "setMintFee",
      "outputs": [],
      "stateMutability": "nonpayable",
      "type": "function"
    },
    {
      "inputs": [
        {
          "internalType": "address",
          "name": "newTreasury",
          "type": "address"
        }
      ],
      "name": "setTreasury",
      "outputs": [],
      "stateMutability": "nonpayable",
      "type": "function"
    },
    {
      "inputs": [
        {
          "internalType": "address",
          "name": "_zexTokenAddress",
          "type": "address"
        }
      ],
      "name": "setZexToken",
      "outputs": [],
      "stateMutability": "nonpayable",
      "type": "function"
    },
    {
      "inputs": [
        {
          "internalType": "bytes4",
          "name": "interfaceId",
          "type": "bytes4"
        }
      ],
      "name": "supportsInterface",
      "outputs": [
        {
          "internalType": "bool",
          "name": "",
          "type": "bool"
        }
      ],
      "stateMutability": "view",
      "type": "function"
    },
    {
      "inputs": [
        {
          "internalType": "address",
          "name": "newOwner",
          "type": "address"
        }
      ],
      "name": "transferOwnership",
      "outputs": [],
      "stateMutability": "nonpayable",
      "type": "function"
    },
    {
      "inputs": [],
      "name": "treasury",
      "outputs": [
        {
          "internalType": "address",
          "name": "",
          "type": "address"
        }
      ],
      "stateMutability": "view",
      "type": "function"
    },
    {
      "inputs": [
        {
          "internalType": "uint256",
          "name": "tokenId",
          "type": "uint256"
        }
      ],
      "name": "uri",
      "outputs": [
        {
          "internalType": "string",
          "name": "",
          "type": "string"
        }
      ],
      "stateMutability": "view",
      "type": "function"
    },
    {
      "inputs": [],
      "name": "zexToken",
      "outputs": [
        {
          "internalType": "contract IERC20",
          "name": "",
          "type": "address"
        }
      ],
      "stateMutability": "view",
      "type": "function"
    }
  ],
  "bytecode": "0x608060405260006007553480156200001657600080fd5b5060405162001d6138038062001d6183398101604081905262000039916200014d565b60408051602081019091526000815283906200005581620000cc565b506001600160a01b0381166200008557604051631e4fbdf760e01b81526000600482015260240160405180910390fd5b6200009081620000de565b50600480546001600160a01b039384166001600160a01b03199182161790915560059190915560068054939092169216919091179055620002ff565b6002620000da828262000233565b5050565b600380546001600160a01b038381166001600160a01b0319831681179093556040519116919082907f8be0079c531659141344cd1fd0a4f28419497f9722a3daafe3b4186f6b6457e090600090a35050565b80516001600160a01b03811681146200014857600080fd5b919050565b6000806000606084860312156200016357600080fd5b6200016e8462000130565b92506200017e6020850162000130565b9150604084015190509250925092565b634e487b7160e01b600052604160045260246000fd5b600181811c90821680620001b957607f821691505b602082108103620001da57634e487b7160e01b600052602260045260246000fd5b50919050565b601f8211156200022e57600081815260208120601f850160051c81016020861015620002095750805b601f850160051c820191505b818110156200022a5782815560010162000215565b5050505b505050565b81516001600160401b038111156200024f576200024f6200018e565b6200026781620002608454620001a4565b84620001e0565b602080601f8311600181146200029f5760008415620002865750858301515b600019600386901b1c1916600185901b1785556200022a565b600085815260208120601f198616915b82811015620002d057888601518255948401946001909101908401620002af565b5085821015620002ef5787850151600019600388901b60f8161c191681555b5050505050600190811b01905550565b611a52806200030f6000396000f3fe608060405234801561001057600080fd5b506004361061012b5760003560e01c80637eb37b7e116100ad578063e985e9c511610071578063e985e9c514610282578063eddd0d9c14610295578063f0f44260146102a8578063f242432a146102bb578063f2fde38b146102ce57600080fd5b80637eb37b7e146102305780638da5cb5b14610243578063938e3d7b14610254578063a22cb46514610267578063e8a3d4851461027a57600080fd5b8063360fc35a116100f4578063360fc35a146101b75780634e1273f4146101e257806361d027b3146102025780636f48a07f14610215578063715018a61461022857600080fd5b8062fdd58e1461013057806301ffc9a7146101565780630e89341c1461017957806313966db5146101995780632eb2c2d6146101a2575b600080fd5b61014361013e3660046111b8565b6102e1565b6040519081526020015b60405180910390f35b6101696101643660046111f8565b610309565b604051901515815260200161014d565b61018c61018736600461121c565b610359565b60405161014d919061127b565b61014360055481565b6101b56101b03660046113d4565b6103fb565b005b6004546101ca906001600160a01b031681565b6040516001600160a01b03909116815260200161014d565b6101f56101f036600461147e565b610467565b60405161014d9190611579565b6006546101ca906001600160a01b031681565b6101b561022336600461158c565b61053c565b6101b561080a565b6101b561023e3660046115d1565b61081e565b6003546001600160a01b03166101ca565b6101b56102623660046115ec565b610848565b6101b5610275366004611637565b610860565b61018c61086b565b61016961029036600461166e565b6108fd565b6101b56102a336600461121c565b61092b565b6101b56102b63660046115d1565b61096f565b6101b56102c93660046116a1565b610a1b565b6101b56102dc3660046115d1565b610a7a565b6000818152602081815260408083206001600160a01b03861684529091529020545b92915050565b60006001600160e01b03198216636cdb3d1360e11b148061033a57506001600160e01b031982166303a24d0760e21b145b8061030357506301ffc9a760e01b6001600160e01b0319831614610303565b600081815260086020526040902080546060919061037690611706565b80601f01602080910402602001604051908101604052809291908181526020018280546103a290611706565b80156103ef5780601f106103c4576101008083540402835291602001916103ef565b820191906000526020600020905b8154815290600101906020018083116103d257829003601f168201915b50505050509050919050565b336001600160a01b038616811480159061041c575061041a86826108fd565b155b156104525760405163711bec9160e11b81526001600160a01b038083166004830152871660248201526044015b60405180910390fd5b61045f8686868686610ab8565b505050505050565b606081518351146104985781518351604051635b05999160e01b815260048101929092526024820152604401610449565b6000835167ffffffffffffffff8111156104b4576104b461128e565b6040519080825280602002602001820160405280156104dd578160200160208202803683370190505b50905060005b845181101561053457602080820286010151610507906020808402870101516102e1565b82828151811061051957610519611740565b602090810291909101015261052d8161176c565b90506104e3565b509392505050565b6000811161058c5760405162461bcd60e51b815260206004820152601d60248201527f416d6f756e74206d7573742062652067726561746572207468616e20300000006044820152606401610449565b60008160055461059c9190611785565b905060006103e86105ae836005611785565b6105b8919061179c565b905060006105c682846117be565b600480546006546040516323b872dd60e01b815233938101939093526001600160a01b0390811660248401526044830184905292935060009216906323b872dd906064016020604051808303816000875af1158015610629573d6000803e3d6000fd5b505050506040513d601f19601f8201168201806040525081019061064d91906117d1565b90508061069c5760405162461bcd60e51b815260206004820152601c60248201527f5a4558207472656173757279207472616e73666572206661696c6564000000006044820152606401610449565b600480546040516323b872dd60e01b8152339281019290925261dead6024830181905260448301869052916000916001600160a01b0316906323b872dd906064016020604051808303816000875af11580156106fc573d6000803e3d6000fd5b505050506040513d601f19601f8201168201806040525081019061072091906117d1565b90508061076f5760405162461bcd60e51b815260206004820152601860248201527f5a4558206275726e207472616e73666572206661696c656400000000000000006044820152606401610449565b6007805490600061077f8361176c565b9091555050600754600081815260086020526040902061079f8a82611839565b506107bb33828a60405180602001604052806000815250610b1f565b80336001600160a01b03167f7f9dd5d8fa69e733db2277a568b65a9651a3042da18fb2b5ea1966d3891cbfda8b8b6040516107f79291906118f9565b60405180910390a3505050505050505050565b610812610b7c565b61081c6000610ba9565b565b610826610b7c565b600480546001600160a01b0319166001600160a01b0392909216919091179055565b610850610b7c565b600961085c8282611839565b5050565b61085c338383610bfb565b60606009805461087a90611706565b80601f01602080910402602001604051908101604052809291908181526020018280546108a690611706565b80156108f35780601f106108c8576101008083540402835291602001916108f3565b820191906000526020600020905b8154815290600101906020018083116108d657829003601f168201915b5050505050905090565b6001600160a01b03918216600090815260016020908152604080832093909416825291909152205460ff1690565b610933610b7c565b60058190556040518181527f38fbb1c8b109c430f0c030e7ed076cf5611a307773a4e8e365601e8f8bceaec6906020015b60405180910390a150565b610977610b7c565b6001600160a01b0381166109cd5760405162461bcd60e51b815260206004820152601860248201527f496e76616c6964207472656173757279206164647265737300000000000000006044820152606401610449565b600680546001600160a01b0319166001600160a01b0383169081179091556040519081527f7dae230f18360d76a040c81f050aa14eb9d6dc7901b20fc5d855e2a20fe814d190602001610964565b336001600160a01b0386168114801590610a3c5750610a3a86826108fd565b155b15610a6d5760405163711bec9160e11b81526001600160a01b03808316600483015287166024820152604401610449565b61045f8686868686610c91565b610a82610b7c565b6001600160a01b038116610aac57604051631e4fbdf760e01b815260006004820152602401610449565b610ab581610ba9565b50565b6001600160a01b038416610ae257604051632bfa23e760e11b815260006004820152602401610449565b6001600160a01b038516610b0b57604051626a0d4560e21b815260006004820152602401610449565b610b188585858585610d1f565b5050505050565b6001600160a01b038416610b4957604051632bfa23e760e11b815260006004820152602401610449565b6040805160018082526020820186905281830190815260608201859052608082019092529061045f600087848487610d1f565b6003546001600160a01b0316331461081c5760405163118cdaa760e01b8152336004820152602401610449565b600380546001600160a01b038381166001600160a01b0319831681179093556040519116919082907f8be0079c531659141344cd1fd0a4f28419497f9722a3daafe3b4186f6b6457e090600090a35050565b6001600160a01b038216610c245760405162ced3e160e81b815260006004820152602401610449565b6001600160a01b03838116600081815260016020908152604080832094871680845294825291829020805460ff191686151590811790915591519182527f17307eab39ab6107e8899845ad3d59bd9653f200f220920489ca2b5937696c31910160405180910390a3505050565b6001600160a01b038416610cbb57604051632bfa23e760e11b815260006004820152602401610449565b6001600160a01b038516610ce457604051626a0d4560e21b815260006004820152602401610449565b60408051600180825260208201869052818301908152606082018590526080820190925290610d168787848487610d1f565b50505050505050565b610d2b85858585610d72565b6001600160a01b03841615610b185782513390600103610d645760208481015190840151610d5d838989858589610f8f565b505061045f565b61045f8187878787876110b3565b8051825114610da15781518151604051635b05999160e01b815260048101929092526024820152604401610449565b3360005b8351811015610eb0576020818102858101820151908501909101516001600160a01b03881615610e58576000828152602081815260408083206001600160a01b038c16845290915290205481811015610e31576040516303dee4c560e01b81526001600160a01b038a166004820152602481018290526044810183905260648101849052608401610449565b6000838152602081815260408083206001600160a01b038d16845290915290209082900390555b6001600160a01b03871615610e9d576000828152602081815260408083206001600160a01b038b16845290915281208054839290610e9790849061191b565b90915550505b505080610ea99061176c565b9050610da5565b508251600103610f315760208301516000906020840151909150856001600160a01b0316876001600160a01b0316846001600160a01b03167fc3d58168c5ae7397731d063d5bbf3d657854427343f4c083240f7aacaa2d0f628585604051610f22929190918252602082015260400190565b60405180910390a45050610b18565b836001600160a01b0316856001600160a01b0316826001600160a01b03167f4a39dc06d4c0dbc64b70af90fd698a233a518aa5d07e595d983b8c0526c8f7fb8686604051610f8092919061192e565b60405180910390a45050505050565b6001600160a01b0384163b1561045f5760405163f23a6e6160e01b81526001600160a01b0385169063f23a6e6190610fd3908990899088908890889060040161195c565b6020604051808303816000875af192505050801561100e575060408051601f3d908101601f1916820190925261100b918101906119a1565b60015b611077573d80801561103c576040519150601f19603f3d011682016040523d82523d6000602084013e611041565b606091505b50805160000361106f57604051632bfa23e760e11b81526001600160a01b0386166004820152602401610449565b805160208201fd5b6001600160e01b0319811663f23a6e6160e01b14610d1657604051632bfa23e760e11b81526001600160a01b0386166004820152602401610449565b6001600160a01b0384163b1561045f5760405163bc197c8160e01b81526001600160a01b0385169063bc197c81906110f790899089908890889088906004016119be565b6020604051808303816000875af1925050508015611132575060408051601f3d908101601f1916820190925261112f918101906119a1565b60015b611160573d80801561103c576040519150601f19603f3d011682016040523d82523d6000602084013e611041565b6001600160e01b0319811663bc197c8160e01b14610d1657604051632bfa23e760e11b81526001600160a01b0386166004820152602401610449565b80356001600160a01b03811681146111b357600080fd5b919050565b600080604083850312156111cb57600080fd5b6111d48361119c565b946020939093013593505050565b6001600160e01b031981168114610ab557600080fd5b60006020828403121561120a57600080fd5b8135611215816111e2565b9392505050565b60006020828403121561122e57600080fd5b5035919050565b6000815180845260005b8181101561125b5760208185018101518683018201520161123f565b506000602082860101526020601f19601f83011685010191505092915050565b6020815260006112156020830184611235565b634e487b7160e01b600052604160045260246000fd5b604051601f8201601f1916810167ffffffffffffffff811182821017156112cd576112cd61128e565b604052919050565b600067ffffffffffffffff8211156112ef576112ef61128e565b5060051b60200190565b600082601f83011261130a57600080fd5b8135602061131f61131a836112d5565b6112a4565b82815260059290921b8401810191818101908684111561133e57600080fd5b8286015b848110156113595780358352918301918301611342565b509695505050505050565b600082601f83011261137557600080fd5b813567ffffffffffffffff81111561138f5761138f61128e565b6113a2601f8201601f19166020016112a4565b8181528460208386010111156113b757600080fd5b816020850160208301376000918101602001919091529392505050565b600080600080600060a086880312156113ec57600080fd5b6113f58661119c565b94506114036020870161119c565b9350604086013567ffffffffffffffff8082111561142057600080fd5b61142c89838a016112f9565b9450606088013591508082111561144257600080fd5b61144e89838a016112f9565b9350608088013591508082111561146457600080fd5b5061147188828901611364565b9150509295509295909350565b6000806040838503121561149157600080fd5b823567ffffffffffffffff808211156114a957600080fd5b818501915085601f8301126114bd57600080fd5b813560206114cd61131a836112d5565b82815260059290921b840181019181810190898411156114ec57600080fd5b948201945b83861015611511576115028661119c565b825294820194908201906114f1565b9650508601359250508082111561152757600080fd5b50611534858286016112f9565b9150509250929050565b600081518084526020808501945080840160005b8381101561156e57815187529582019590820190600101611552565b509495945050505050565b602081526000611215602083018461153e565b6000806040838503121561159f57600080fd5b823567ffffffffffffffff8111156115b657600080fd5b6115c285828601611364565b95602094909401359450505050565b6000602082840312156115e357600080fd5b6112158261119c565b6000602082840312156115fe57600080fd5b813567ffffffffffffffff81111561161557600080fd5b61162184828501611364565b949350505050565b8015158114610ab557600080fd5b6000806040838503121561164a57600080fd5b6116538361119c565b9150602083013561166381611629565b809150509250929050565b6000806040838503121561168157600080fd5b61168a8361119c565b91506116986020840161119c565b90509250929050565b600080600080600060a086880312156116b957600080fd5b6116c28661119c565b94506116d06020870161119c565b93506040860135925060608601359150608086013567ffffffffffffffff8111156116fa57600080fd5b61147188828901611364565b600181811c9082168061171a57607f821691505b60208210810361173a57634e487b7160e01b600052602260045260246000fd5b50919050565b634e487b7160e01b600052603260045260246000fd5b634e487b7160e01b600052601160045260246000fd5b60006001820161177e5761177e611756565b5060010190565b808202811582820484141761030357610303611756565b6000826117b957634e487b7160e01b600052601260045260246000fd5b500490565b8181038181111561030357610303611756565b6000602082840312156117e357600080fd5b815161121581611629565b601f82111561183457600081815260208120601f850160051c810160208610156118155750805b601f850160051c820191505b8181101561045f57828155600101611821565b505050565b815167ffffffffffffffff8111156118535761185361128e565b611867816118618454611706565b846117ee565b602080601f83116001811461189c57600084156118845750858301515b600019600386901b1c1916600185901b17855561045f565b600085815260208120601f198616915b828110156118cb578886015182559484019460019091019084016118ac565b50858210156118e95787850151600019600388901b60f8161c191681555b5050505050600190811b01905550565b60408152600061190c6040830185611235565b90508260208301529392505050565b8082018082111561030357610303611756565b604081526000611941604083018561153e565b8281036020840152611953818561153e565b95945050505050565b6001600160a01b03868116825285166020820152604081018490526060810183905260a06080820181905260009061199690830184611235565b979650505050505050565b6000602082840312156119b357600080fd5b8151611215816111e2565b6001600160a01b0386811682528516602082015260a0604082018190526000906119ea9083018661153e565b82810360608401526119fc818661153e565b90508281036080840152611a108185611235565b9897505050505050505056fea2646970667358221220fe3c0a5c439de8e8f52c09b19a453460d78adaefd3906fb36029263ad80bbe5264736f6c63430008140033",
  "linkReferences": {},
  "deployedLinkReferences": {}
}