{
  "_format": "hh-sol-artifact-1",
  "contractName": "ZexVesting",
  "sourceName": "contracts/ZexVesting.sol",
  "abi": [
    {
      "inputs": [
        {
          "internalType": "address",
          "name": "_zexToken",
          "type": "address"
        }
      ],
      "stateMutability": "nonpayable",
      "type": "constructor"
    },
    {
      "inputs": [
        {
          "internalType": "address",
          "name": "owner",
          "type": "address"
        }
      ],
      "name": "OwnableInvalidOwner",
      "type": "error"
    },
    {
      "inputs": [
        {
          "internalType": "address",
          "name": "account",
          "type": "address"
        }
      ],
      "name": "OwnableUnauthorizedAccount",
      "type": "error"
    },
    {
      "inputs": [],
      "name": "ReentrancyGuardReentrantCall",
      "type": "error"
    },
    {
      "anonymous": false,
      "inputs": [
        {
          "indexed": true,
          "internalType": "address",
          "name": "previousOwner",
          "type": "address"
        },
        {
          "indexed": true,
          "internalType": "address",
          "name": "newOwner",
          "type": "address"
        }
      ],
      "name": "OwnershipTransferred",
      "type": "event"
    },
    {
      "anonymous": false,
      "inputs": [
        {
          "indexed": true,
          "internalType": "address",
          "name": "beneficiary",
          "type": "address"
        },
        {
          "indexed": false,
          "internalType": "uint256",
          "name": "amount",
          "type": "uint256"
        }
      ],
      "name": "TokensReleased",
      "type": "event"
    },
    {
      "anonymous": false,
      "inputs": [
        {
          "indexed": true,
          "internalType": "address",
          "name": "beneficiary",
          "type": "address"
        },
        {
          "indexed": false,
          "internalType": "uint256",
          "name": "amountRefunded",
          "type": "uint256"
        }
      ],
      "name": "VestingRevoked",
      "type": "event"
    },
    {
      "anonymous": false,
      "inputs": [
        {
          "indexed": true,
          "internalType": "address",
          "name": "beneficiary",
          "type": "address"
        },
        {
          "indexed": false,
          "internalType": "uint256",
          "name": "amount",
          "type": "uint256"
        },
        {
          "indexed": false,
          "internalType": "uint256",
          "name": "startTime",
          "type": "uint256"
        },
        {
          "indexed": false,
          "internalType": "uint256",
          "name": "cliffDuration",
          "type": "uint256"
        },
        {
          "indexed": false,
          "internalType": "uint256",
          "name": "vestingDuration",
          "type": "uint256"
        }
      ],
      "name": "VestingScheduleCreated",
      "type": "event"
    },
    {
      "inputs": [
        {
          "internalType": "address",
          "name": "beneficiary",
          "type": "address"
        },
        {
          "internalType": "uint256",
          "name": "amount",
          "type": "uint256"
        },
        {
          "internalType": "uint256",
          "name": "startTime",
          "type": "uint256"
        },
        {
          "internalType": "uint256",
          "name": "cliffDuration",
          "type": "uint256"
        },
        {
          "internalType": "uint256",
          "name": "vestingDuration",
          "type": "uint256"
        },
        {
          "internalType": "bool",
          "name": "isRevocable",
          "type": "bool"
        }
      ],
      "name": "createVestingSchedule",
      "outputs": [],
      "stateMutability": "nonpayable",
      "type": "function"
    },
    {
      "inputs": [],
      "name": "owner",
      "outputs": [
        {
          "internalType": "address",
          "name": "",
          "type": "address"
        }
      ],
      "stateMutability": "view",
      "type": "function"
    },
    {
      "inputs": [],
      "name": "release",
      "outputs": [],
      "stateMutability": "nonpayable",
      "type": "function"
    },
    {
      "inputs": [],
      "name": "renounceOwnership",
      "outputs": [],
      "stateMutability": "nonpayable",
      "type": "function"
    },
    {
      "inputs": [
        {
          "internalType": "address",
          "name": "beneficiary",
          "type": "address"
        }
      ],
      "name": "revoke",
      "outputs": [],
      "stateMutability": "nonpayable",
      "type": "function"
    },
    {
      "inputs": [],
      "name": "totalVestingAmount",
      "outputs": [
        {
          "internalType": "uint256",
          "name": "",
          "type": "uint256"
        }
      ],
      "stateMutability": "view",
      "type": "function"
    },
    {
      "inputs": [
        {
          "internalType": "address",
          "name": "newOwner",
          "type": "address"
        }
      ],
      "name": "transferOwnership",
      "outputs": [],
      "stateMutability": "nonpayable",
      "type": "function"
    },
    {
      "inputs": [
        {
          "internalType": "address",
          "name": "beneficiary",
          "type": "address"
        }
      ],
      "name": "vestedAmount",
      "outputs": [
        {
          "internalType": "uint256",
          "name": "",
          "type": "uint256"
        }
      ],
      "stateMutability": "view",
      "type": "function"
    },
    {
      "inputs": [
        {
          "internalType": "address",
          "name": "",
          "type": "address"
        }
      ],
      "name": "vestingSchedules",
      "outputs": [
        {
          "internalType": "uint256",
          "name": "totalAmount",
          "type": "uint256"
        },
        {
          "internalType": "uint256",
          "name": "amountReleased",
          "type": "uint256"
        },
        {
          "internalType": "uint256",
          "name": "startTime",
          "type": "uint256"
        },
        {
          "internalType": "uint256",
          "name": "cliffDuration",
          "type": "uint256"
        },
        {
          "internalType": "uint256",
          "name": "vestingDuration",
          "type": "uint256"
        },
        {
          "internalType": "bool",
          "name": "isRevocable",
          "type": "bool"
        },
        {
          "internalType": "bool",
          "name": "revoked",
          "type": "bool"
        }
      ],
      "stateMutability": "view",
      "type": "function"
    },
    {
      "inputs": [],
      "name": "zexToken",
      "outputs": [
        {
          "internalType": "contract IERC20",
          "name": "",
          "type": "address"
        }
      ],
      "stateMutability": "view",
      "type": "function"
    }
  ],
  "bytecode": "0x60a060405234801561001057600080fd5b50604051610fd0380380610fd083398101604081905261002f9161011b565b338061005657604051631e4fbdf760e01b8152600060048201526024015b60405180910390fd5b61005f816100cb565b50600180556001600160a01b0381166100ba5760405162461bcd60e51b815260206004820152601560248201527f496e76616c696420746f6b656e20616464726573730000000000000000000000604482015260640161004d565b6001600160a01b031660805261014b565b600080546001600160a01b038381166001600160a01b0319831681178455604051919092169283917f8be0079c531659141344cd1fd0a4f28419497f9722a3daafe3b4186f6b6457e09190a35050565b60006020828403121561012d57600080fd5b81516001600160a01b038116811461014457600080fd5b9392505050565b608051610e5661017a6000396000818160c40152818161049e015281816107550152610aa00152610e566000f3fe608060405234801561001057600080fd5b506004361061009e5760003560e01c806386d1a69f1161006657806386d1a69f1461012e5780638da5cb5b14610136578063aaad932114610147578063f2fde38b1461015a578063fdb20ccb1461016d57600080fd5b80632db94d19146100a3578063360fc35a146100bf578063384711cc146100fe578063715018a61461011157806374a8f1031461011b575b600080fd5b6100ac60035481565b6040519081526020015b60405180910390f35b6100e67f000000000000000000000000000000000000000000000000000000000000000081565b6040516001600160a01b0390911681526020016100b6565b6100ac61010c366004610ce3565b6101f7565b610119610322565b005b610119610129366004610ce3565b610336565b6101196105db565b6000546001600160a01b03166100e6565b610119610155366004610d13565b61084f565b610119610168366004610ce3565b610be2565b6101be61017b366004610ce3565b6002602081905260009182526040909120805460018201549282015460038301546004840154600590940154929493919290919060ff8082169161010090041687565b6040805197885260208801969096529486019390935260608501919091526080840152151560a0830152151560c082015260e0016100b6565b6001600160a01b0381166000908152600260208181526040808420815160e0810183528154808252600183015494820194909452938101549184019190915260038101546060840152600481015460808401526005015460ff808216151560a085015261010090910416151560c083015282036102775750600092915050565b8060600151816040015161028b9190610d85565b42101561029b5750600092915050565b8060800151816060015182604001516102b49190610d85565b6102be9190610d85565b421015806102cd57508060c001515b156102d9575192915050565b6000816060015182604001516102ef9190610d85565b6102f99042610d9e565b905081608001518183600001516103109190610db1565b61031a9190610dc8565b949350505050565b61032a610c20565b6103346000610c4d565b565b61033e610c20565b6001600160a01b038116600090815260026020526040902080546103a55760405162461bcd60e51b8152602060048201526019602482015278139bc81d995cdd1a5b99c81cd8da19591d5b1948199bdd5b99603a1b60448201526064015b60405180910390fd5b600581015460ff166103f95760405162461bcd60e51b815260206004820152601860248201527f56657374696e67206973206e6f74207265766f6361626c650000000000000000604482015260640161039c565b6005810154610100900460ff16156104455760405162461bcd60e51b815260206004820152600f60248201526e105b1c9958591e481c995d9bdad959608a1b604482015260640161039c565b6000610450836101f7565b905060008183600001546104649190610d9e565b60058401805461ff00191661010017905582845560038054919250829160009061048f908490610d9e565b90915550506001600160a01b037f00000000000000000000000000000000000000000000000000000000000000001663a9059cbb6104d56000546001600160a01b031690565b6040516001600160e01b031960e084901b1681526001600160a01b039091166004820152602481018490526044016020604051808303816000875af1158015610522573d6000803e3d6000fd5b505050506040513d601f19601f820116820180604052508101906105469190610dea565b6105925760405162461bcd60e51b815260206004820152601c60248201527f546f6b656e20726566756e64207472616e73666572206661696c656400000000604482015260640161039c565b836001600160a01b03167f57c76f5e278bfbd4eeb5207d287aa5a1a9e1113c65f7eefa540e379a2774d13b826040516105cd91815260200190565b60405180910390a250505050565b6105e3610c9d565b336000908152600260205260409020805461063c5760405162461bcd60e51b8152602060048201526019602482015278139bc81d995cdd1a5b99c81cd8da19591d5b1948199bdd5b99603a1b604482015260640161039c565b6005810154610100900460ff16156106965760405162461bcd60e51b815260206004820152601860248201527f56657374696e67207363686564756c65207265766f6b65640000000000000000604482015260640161039c565b60006106a1336101f7565b905060008260010154826106b59190610d9e565b9050600081116107075760405162461bcd60e51b815260206004820181905260248201527f4e6f20746f6b656e73206172652064756520746f2062652072656c6561736564604482015260640161039c565b8083600101600082825461071b9190610d85565b9250508190555080600360008282546107349190610d9e565b909155505060405163a9059cbb60e01b8152336004820152602481018290527f00000000000000000000000000000000000000000000000000000000000000006001600160a01b03169063a9059cbb906044016020604051808303816000875af11580156107a6573d6000803e3d6000fd5b505050506040513d601f19601f820116820180604052508101906107ca9190610dea565b61080e5760405162461bcd60e51b8152602060048201526015602482015274151bdad95b881d1c985b9cd9995c8819985a5b1959605a1b604482015260640161039c565b60405181815233907fc7798891864187665ac6dd119286e44ec13f014527aeeb2b8eb3fd413df931799060200160405180910390a250505061033460018055565b610857610c20565b6001600160a01b0386166108a35760405162461bcd60e51b8152602060048201526013602482015272496e76616c69642062656e656669636961727960681b604482015260640161039c565b600085116108e85760405162461bcd60e51b81526020600482015260126024820152710416d6f756e74206d757374206265203e20360741b604482015260640161039c565b6001600160a01b0386166000908152600260205260409020541561094e5760405162461bcd60e51b815260206004820152601760248201527f5363686564756c6520616c726561647920657869737473000000000000000000604482015260640161039c565b6000821161099e5760405162461bcd60e51b815260206004820152601c60248201527f56657374696e67206475726174696f6e206d757374206265203e203000000000604482015260640161039c565b6040518060e001604052808681526020016000815260200185815260200184815260200183815260200182151581526020016000151581525060026000886001600160a01b03166001600160a01b03168152602001908152602001600020600082015181600001556020820151816001015560408201518160020155606082015181600301556080820151816004015560a08201518160050160006101000a81548160ff02191690831515021790555060c08201518160050160016101000a81548160ff0219169083151502179055509050508460036000828254610a839190610d85565b90915550506003546040516370a0823160e01b81523060048201527f00000000000000000000000000000000000000000000000000000000000000006001600160a01b0316906370a0823190602401602060405180830381865afa158015610aef573d6000803e3d6000fd5b505050506040513d601f19601f82011682018060405250810190610b139190610e07565b1015610b875760405162461bcd60e51b815260206004820152603a60248201527f436f6e747261637420646f6573206e6f74206861766520656e6f75676820746f60448201527f6b656e7320746f206261636b2074686973207363686564756c65000000000000606482015260840161039c565b6040805186815260208101869052908101849052606081018390526001600160a01b038716907f47d46f58c7d60d60571092cff5715b8c8c5bc1347db2bb9890e639bf3680ba7b9060800160405180910390a2505050505050565b610bea610c20565b6001600160a01b038116610c1457604051631e4fbdf760e01b81526000600482015260240161039c565b610c1d81610c4d565b50565b6000546001600160a01b031633146103345760405163118cdaa760e01b815233600482015260240161039c565b600080546001600160a01b038381166001600160a01b0319831681178455604051919092169283917f8be0079c531659141344cd1fd0a4f28419497f9722a3daafe3b4186f6b6457e09190a35050565b600260015403610cc057604051633ee5aeb560e01b815260040160405180910390fd5b6002600155565b80356001600160a01b0381168114610cde57600080fd5b919050565b600060208284031215610cf557600080fd5b610cfe82610cc7565b9392505050565b8015158114610c1d57600080fd5b60008060008060008060c08789031215610d2c57600080fd5b610d3587610cc7565b95506020870135945060408701359350606087013592506080870135915060a0870135610d6181610d05565b809150509295509295509295565b634e487b7160e01b600052601160045260246000fd5b80820180821115610d9857610d98610d6f565b92915050565b81810381811115610d9857610d98610d6f565b8082028115828204841417610d9857610d98610d6f565b600082610de557634e487b7160e01b600052601260045260246000fd5b500490565b600060208284031215610dfc57600080fd5b8151610cfe81610d05565b600060208284031215610e1957600080fd5b505191905056fea2646970667358221220fb5d8e6d53ebdb8e8834a03542a13b373bb29de70050510aed7233430a9f098e64736f6c63430008140033",
  "linkReferences": {},
  "deployedLinkReferences": {}
}