{
  "_format": "hh-sol-artifact-1",
  "contractName": "ZexToken",
  "sourceName": "contracts/ZexToken.sol",
  "abi": [
    {
      "inputs": [
        {
          "internalType": "address",
          "name": "initialOwner",
          "type": "address"
        }
      ],
      "stateMutability": "nonpayable",
      "type": "constructor"
    },
    {
      "inputs": [
        {
          "internalType": "address",
          "name": "spender",
          "type": "address"
        },
        {
          "internalType": "uint256",
          "name": "allowance",
          "type": "uint256"
        },
        {
          "internalType": "uint256",
          "name": "needed",
          "type": "uint256"
        }
      ],
      "name": "ERC20InsufficientAllowance",
      "type": "error"
    },
    {
      "inputs": [
        {
          "internalType": "address",
          "name": "sender",
          "type": "address"
        },
        {
          "internalType": "uint256",
          "name": "balance",
          "type": "uint256"
        },
        {
          "internalType": "uint256",
          "name": "needed",
          "type": "uint256"
        }
      ],
      "name": "ERC20InsufficientBalance",
      "type": "error"
    },
    {
      "inputs": [
        {
          "internalType": "address",
          "name": "approver",
          "type": "address"
        }
      ],
      "name": "ERC20InvalidApprover",
      "type": "error"
    },
    {
      "inputs": [
        {
          "internalType": "address",
          "name": "receiver",
          "type": "address"
        }
      ],
      "name": "ERC20InvalidReceiver",
      "type": "error"
    },
    {
      "inputs": [
        {
          "internalType": "address",
          "name": "sender",
          "type": "address"
        }
      ],
      "name": "ERC20InvalidSender",
      "type": "error"
    },
    {
      "inputs": [
        {
          "internalType": "address",
          "name": "spender",
          "type": "address"
        }
      ],
      "name": "ERC20InvalidSpender",
      "type": "error"
    },
    {
      "inputs": [
        {
          "internalType": "address",
          "name": "owner",
          "type": "address"
        }
      ],
      "name": "OwnableInvalidOwner",
      "type": "error"
    },
    {
      "inputs": [
        {
          "internalType": "address",
          "name": "account",
          "type": "address"
        }
      ],
      "name": "OwnableUnauthorizedAccount",
      "type": "error"
    },
    {
      "anonymous": false,
      "inputs": [
        {
          "indexed": true,
          "internalType": "address",
          "name": "owner",
          "type": "address"
        },
        {
          "indexed": true,
          "internalType": "address",
          "name": "spender",
          "type": "address"
        },
        {
          "indexed": false,
          "internalType": "uint256",
          "name": "value",
          "type": "uint256"
        }
      ],
      "name": "Approval",
      "type": "event"
    },
    {
      "anonymous": false,
      "inputs": [
        {
          "indexed": true,
          "internalType": "address",
          "name": "previousOwner",
          "type": "address"
        },
        {
          "indexed": true,
          "internalType": "address",
          "name": "newOwner",
          "type": "address"
        }
      ],
      "name": "OwnershipTransferred",
      "type": "event"
    },
    {
      "anonymous": false,
      "inputs": [
        {
          "indexed": true,
          "internalType": "address",
          "name": "from",
          "type": "address"
        },
        {
          "indexed": true,
          "internalType": "address",
          "name": "to",
          "type": "address"
        },
        {
          "indexed": false,
          "internalType": "uint256",
          "name": "value",
          "type": "uint256"
        }
      ],
      "name": "Transfer",
      "type": "event"
    },
    {
      "inputs": [],
      "name": "MAX_SUPPLY",
      "outputs": [
        {
          "internalType": "uint256",
          "name": "",
          "type": "uint256"
        }
      ],
      "stateMutability": "view",
      "type": "function"
    },
    {
      "inputs": [],
      "name": "MIN_SUPPLY",
      "outputs": [
        {
          "internalType": "uint256",
          "name": "",
          "type": "uint256"
        }
      ],
      "stateMutability": "view",
      "type": "function"
    },
    {
      "inputs": [
        {
          "internalType": "address",
          "name": "owner",
          "type": "address"
        },
        {
          "internalType": "address",
          "name": "spender",
          "type": "address"
        }
      ],
      "name": "allowance",
      "outputs": [
        {
          "internalType": "uint256",
          "name": "",
          "type": "uint256"
        }
      ],
      "stateMutability": "view",
      "type": "function"
    },
    {
      "inputs": [
        {
          "internalType": "address",
          "name": "spender",
          "type": "address"
        },
        {
          "internalType": "uint256",
          "name": "value",
          "type": "uint256"
        }
      ],
      "name": "approve",
      "outputs": [
        {
          "internalType": "bool",
          "name": "",
          "type": "bool"
        }
      ],
      "stateMutability": "nonpayable",
      "type": "function"
    },
    {
      "inputs": [
        {
          "internalType": "address",
          "name": "account",
          "type": "address"
        }
      ],
      "name": "balanceOf",
      "outputs": [
        {
          "internalType": "uint256",
          "name": "",
          "type": "uint256"
        }
      ],
      "stateMutability": "view",
      "type": "function"
    },
    {
      "inputs": [
        {
          "internalType": "uint256",
          "name": "value",
          "type": "uint256"
        }
      ],
      "name": "burn",
      "outputs": [],
      "stateMutability": "nonpayable",
      "type": "function"
    },
    {
      "inputs": [
        {
          "internalType": "address",
          "name": "account",
          "type": "address"
        },
        {
          "internalType": "uint256",
          "name": "value",
          "type": "uint256"
        }
      ],
      "name": "burnFrom",
      "outputs": [],
      "stateMutability": "nonpayable",
      "type": "function"
    },
    {
      "inputs": [],
      "name": "decimals",
      "outputs": [
        {
          "internalType": "uint8",
          "name": "",
          "type": "uint8"
        }
      ],
      "stateMutability": "view",
      "type": "function"
    },
    {
      "inputs": [],
      "name": "getCurrentFeeBasisPoints",
      "outputs": [
        {
          "internalType": "uint256",
          "name": "",
          "type": "uint256"
        }
      ],
      "stateMutability": "view",
      "type": "function"
    },
    {
      "inputs": [
        {
          "internalType": "address",
          "name": "",
          "type": "address"
        }
      ],
      "name": "isExcludedFromFee",
      "outputs": [
        {
          "internalType": "bool",
          "name": "",
          "type": "bool"
        }
      ],
      "stateMutability": "view",
      "type": "function"
    },
    {
      "inputs": [],
      "name": "maxTxAmount",
      "outputs": [
        {
          "internalType": "uint256",
          "name": "",
          "type": "uint256"
        }
      ],
      "stateMutability": "view",
      "type": "function"
    },
    {
      "inputs": [],
      "name": "name",
      "outputs": [
        {
          "internalType": "string",
          "name": "",
          "type": "string"
        }
      ],
      "stateMutability": "view",
      "type": "function"
    },
    {
      "inputs": [],
      "name": "owner",
      "outputs": [
        {
          "internalType": "address",
          "name": "",
          "type": "address"
        }
      ],
      "stateMutability": "view",
      "type": "function"
    },
    {
      "inputs": [],
      "name": "renounceOwnership",
      "outputs": [],
      "stateMutability": "nonpayable",
      "type": "function"
    },
    {
      "inputs": [
        {
          "internalType": "address",
          "name": "account",
          "type": "address"
        },
        {
          "internalType": "bool",
          "name": "excluded",
          "type": "bool"
        }
      ],
      "name": "setExcludeFromFee",
      "outputs": [],
      "stateMutability": "nonpayable",
      "type": "function"
    },
    {
      "inputs": [
        {
          "internalType": "uint256",
          "name": "amount",
          "type": "uint256"
        }
      ],
      "name": "setMaxTxAmount",
      "outputs": [],
      "stateMutability": "nonpayable",
      "type": "function"
    },
    {
      "inputs": [
        {
          "internalType": "address",
          "name": "wallet",
          "type": "address"
        }
      ],
      "name": "setStakingRewardWallet",
      "outputs": [],
      "stateMutability": "nonpayable",
      "type": "function"
    },
    {
      "inputs": [
        {
          "internalType": "uint256",
          "name": "basisPoints",
          "type": "uint256"
        }
      ],
      "name": "setTransferFee",
      "outputs": [],
      "stateMutability": "nonpayable",
      "type": "function"
    },
    {
      "inputs": [],
      "name": "stakingRewardWallet",
      "outputs": [
        {
          "internalType": "address",
          "name": "",
          "type": "address"
        }
      ],
      "stateMutability": "view",
      "type": "function"
    },
    {
      "inputs": [],
      "name": "symbol",
      "outputs": [
        {
          "internalType": "string",
          "name": "",
          "type": "string"
        }
      ],
      "stateMutability": "view",
      "type": "function"
    },
    {
      "inputs": [],
      "name": "totalSupply",
      "outputs": [
        {
          "internalType": "uint256",
          "name": "",
          "type": "uint256"
        }
      ],
      "stateMutability": "view",
      "type": "function"
    },
    {
      "inputs": [
        {
          "internalType": "address",
          "name": "to",
          "type": "address"
        },
        {
          "internalType": "uint256",
          "name": "value",
          "type": "uint256"
        }
      ],
      "name": "transfer",
      "outputs": [
        {
          "internalType": "bool",
          "name": "",
          "type": "bool"
        }
      ],
      "stateMutability": "nonpayable",
      "type": "function"
    },
    {
      "inputs": [],
      "name": "transferFeeBasisPoints",
      "outputs": [
        {
          "internalType": "uint256",
          "name": "",
          "type": "uint256"
        }
      ],
      "stateMutability": "view",
      "type": "function"
    },
    {
      "inputs": [
        {
          "internalType": "address",
          "name": "from",
          "type": "address"
        },
        {
          "internalType": "address",
          "name": "to",
          "type": "address"
        },
        {
          "internalType": "uint256",
          "name": "value",
          "type": "uint256"
        }
      ],
      "name": "transferFrom",
      "outputs": [
        {
          "internalType": "bool",
          "name": "",
          "type": "bool"
        }
      ],
      "stateMutability": "nonpayable",
      "type": "function"
    },
    {
      "inputs": [
        {
          "internalType": "address",
          "name": "newOwner",
          "type": "address"
        }
      ],
      "name": "transferOwnership",
      "outputs": [],
      "stateMutability": "nonpayable",
      "type": "function"
    }
  ],
  "bytecode": "0x608060405260056006556a084595161401484a0000006008553480156200002557600080fd5b506040516200151038038062001510833981016040819052620000489162000526565b80604051806040016040528060088152602001672d32bc2a37b5b2b760c11b815250604051806040016040528060038152602001620b48ab60eb1b8152508160039081620000979190620005fc565b506004620000a68282620005fc565b5050506001600160a01b038116620000d957604051631e4fbdf760e01b8152600060048201526024015b60405180910390fd5b620000e4816200013d565b506001600160a01b0381166000908152600760205260408082208054600160ff199182168117909255308452919092208054909116909117905562000136816b033b2e3c9fd0803ce80000006200018f565b506200074d565b600580546001600160a01b038381166001600160a01b0319831681179093556040519116919082907f8be0079c531659141344cd1fd0a4f28419497f9722a3daafe3b4186f6b6457e090600090a35050565b6001600160a01b038216620001bb5760405163ec442f0560e01b815260006004820152602401620000d0565b620001c960008383620001cd565b5050565b6001600160a01b0383161580620001eb57506001600160a01b038216155b806200020f57506001600160a01b03831660009081526007602052604090205460ff165b806200023357506001600160a01b03821660009081526007602052604090205460ff165b156200024b576200024683838362000388565b505050565b600854811115620002ab5760405162461bcd60e51b8152602060048201526024808201527f5472616e7366657220616d6f756e742065786365656473206d6178207478206c6044820152631a5b5a5d60e21b6064820152608401620000d0565b6000620002b7620004bb565b90508015620003755760006103e8620002d18385620006de565b620002dd9190620006fe565b90506000620002ed828562000721565b90506000620002fe600284620006fe565b905060006200030e828562000721565b90506200031e8860008462000388565b6009546001600160a01b03161562000350576009546200034a9089906001600160a01b03168362000388565b6200035e565b6200035e8860008362000388565b6200036b88888562000388565b5050505062000382565b6200038284848462000388565b50505050565b6001600160a01b038316620003b7578060026000828254620003ab919062000737565b909155506200042b9050565b6001600160a01b038316600090815260208190526040902054818110156200040c5760405163391434e360e21b81526001600160a01b03851660048201526024810182905260448101839052606401620000d0565b6001600160a01b03841660009081526020819052604090209082900390555b6001600160a01b038216620004495760028054829003905562000468565b6001600160a01b03821660009081526020819052604090208054820190555b816001600160a01b0316836001600160a01b03167fddf252ad1be2c89b69c2b068fc378daa952ba7f163c4a11628f55a4df523b3ef83604051620004ae91815260200190565b60405180910390a3505050565b600080620004c860025490565b90506b019d971e4fe8401e740000008111620004e657600091505090565b6b01f04ef12cb04cf15800000081116200050257600191505090565b6b026c62ad77dc602dae00000081116200051e57600391505090565b505060065490565b6000602082840312156200053957600080fd5b81516001600160a01b03811681146200055157600080fd5b9392505050565b634e487b7160e01b600052604160045260246000fd5b600181811c908216806200058357607f821691505b602082108103620005a457634e487b7160e01b600052602260045260246000fd5b50919050565b601f8211156200024657600081815260208120601f850160051c81016020861015620005d35750805b601f850160051c820191505b81811015620005f457828155600101620005df565b505050505050565b81516001600160401b0381111562000618576200061862000558565b62000630816200062984546200056e565b84620005aa565b602080601f8311600181146200066857600084156200064f5750858301515b600019600386901b1c1916600185901b178555620005f4565b600085815260208120601f198616915b82811015620006995788860151825594840194600190910190840162000678565b5085821015620006b85787850151600019600388901b60f8161c191681555b5050505050600190811b01905550565b634e487b7160e01b600052601160045260246000fd5b8082028115828204841417620006f857620006f8620006c8565b92915050565b6000826200071c57634e487b7160e01b600052601260045260246000fd5b500490565b81810381811115620006f857620006f8620006c8565b80820180821115620006f857620006f8620006c8565b610db3806200075d6000396000f3fe608060405234801561001057600080fd5b50600436106101735760003560e01c806370a08231116100de57806395d89b4111610097578063c84434f511610071578063c84434f514610331578063dd62ed3e14610339578063ec28438a14610372578063f2fde38b1461038557600080fd5b806395d89b4114610303578063a9059cbb1461030b578063af9549e01461031e57600080fd5b806370a0823114610292578063715018a6146102bb57806379cc6790146102c35780638c0b5e22146102d65780638da5cb5b146102df5780638f02bb5b146102f057600080fd5b8063313ce56711610130578063313ce5671461021257806332cb6b0c1461022157806335917c64146102345780633f9207531461024757806342966c681461025c5780635342acb41461026f57600080fd5b806306fdde0314610178578063095ea7b31461019657806318160ddd146101b9578063183767da146101cb57806323b872dd146101d45780632d2e5cd5146101e7575b600080fd5b610180610398565b60405161018d9190610b54565b60405180910390f35b6101a96101a4366004610bbe565b61042a565b604051901515815260200161018d565b6002545b60405190815260200161018d565b6101bd60065481565b6101a96101e2366004610be8565b610444565b6009546101fa906001600160a01b031681565b6040516001600160a01b03909116815260200161018d565b6040516012815260200161018d565b6101bd6b033b2e3c9fd0803ce800000081565b6101bd6b019d971e4fe8401e7400000081565b61025a610255366004610c24565b610468565b005b61025a61026a366004610c46565b610492565b6101a961027d366004610c24565b60076020526000908152604090205460ff1681565b6101bd6102a0366004610c24565b6001600160a01b031660009081526020819052604090205490565b61025a61049f565b61025a6102d1366004610bbe565b6104b3565b6101bd60085481565b6005546001600160a01b03166101fa565b61025a6102fe366004610c46565b6104cc565b610180610527565b6101a9610319366004610bbe565b610536565b61025a61032c366004610c5f565b610544565b6101bd610577565b6101bd610347366004610c9b565b6001600160a01b03918216600090815260016020908152604080832093909416825291909152205490565b61025a610380366004610c46565b6105de565b61025a610393366004610c24565b6105eb565b6060600380546103a790610cce565b80601f01602080910402602001604051908101604052809291908181526020018280546103d390610cce565b80156104205780601f106103f557610100808354040283529160200191610420565b820191906000526020600020905b81548152906001019060200180831161040357829003601f168201915b5050505050905090565b600033610438818585610626565b60019150505b92915050565b600033610452858285610638565b61045d8585856106b7565b506001949350505050565b610470610716565b600980546001600160a01b0319166001600160a01b0392909216919091179055565b61049c3382610743565b50565b6104a7610716565b6104b16000610779565b565b6104be823383610638565b6104c88282610743565b5050565b6104d4610716565b60648111156105225760405162461bcd60e51b81526020600482015260156024820152745461782063616e6e6f74206578636565642031302560581b60448201526064015b60405180910390fd5b600655565b6060600480546103a790610cce565b6000336104388185856106b7565b61054c610716565b6001600160a01b03919091166000908152600760205260409020805460ff1916911515919091179055565b60008061058360025490565b90506b019d971e4fe8401e7400000081116105a057600091505090565b6b01f04ef12cb04cf15800000081116105bb57600191505090565b6b026c62ad77dc602dae00000081116105d657600391505090565b505060065490565b6105e6610716565b600855565b6105f3610716565b6001600160a01b03811661061d57604051631e4fbdf760e01b815260006004820152602401610519565b61049c81610779565b61063383838360016107cb565b505050565b6001600160a01b038381166000908152600160209081526040808320938616835292905220546000198110156106b157818110156106a257604051637dc7a0d960e11b81526001600160a01b03841660048201526024810182905260448101839052606401610519565b6106b1848484840360006107cb565b50505050565b6001600160a01b0383166106e157604051634b637e8f60e11b815260006004820152602401610519565b6001600160a01b03821661070b5760405163ec442f0560e01b815260006004820152602401610519565b6106338383836108a0565b6005546001600160a01b031633146104b15760405163118cdaa760e01b8152336004820152602401610519565b6001600160a01b03821661076d57604051634b637e8f60e11b815260006004820152602401610519565b6104c8826000836108a0565b600580546001600160a01b038381166001600160a01b0319831681179093556040519116919082907f8be0079c531659141344cd1fd0a4f28419497f9722a3daafe3b4186f6b6457e090600090a35050565b6001600160a01b0384166107f55760405163e602df0560e01b815260006004820152602401610519565b6001600160a01b03831661081f57604051634a1406b160e11b815260006004820152602401610519565b6001600160a01b03808516600090815260016020908152604080832093871683529290522082905580156106b157826001600160a01b0316846001600160a01b03167f8c5be1e5ebec7d5bd14f71427d1e84f3dd0314c0f7b2291e5b200ac8c7c3b9258460405161089291815260200190565b60405180910390a350505050565b6001600160a01b03831615806108bd57506001600160a01b038216155b806108e057506001600160a01b03831660009081526007602052604090205460ff165b8061090357506001600160a01b03821660009081526007602052604090205460ff165b1561091357610633838383610a2a565b6008548111156109715760405162461bcd60e51b8152602060048201526024808201527f5472616e7366657220616d6f756e742065786365656473206d6178207478206c6044820152631a5b5a5d60e21b6064820152608401610519565b600061097b610577565b90508015610a235760006103e86109928385610d1e565b61099c9190610d35565b905060006109aa8285610d57565b905060006109b9600284610d35565b905060006109c78285610d57565b90506109d588600084610a2a565b6009546001600160a01b031615610a03576009546109fe9089906001600160a01b031683610a2a565b610a0f565b610a0f88600083610a2a565b610a1a888885610a2a565b505050506106b1565b6106b18484845b6001600160a01b038316610a55578060026000828254610a4a9190610d6a565b90915550610ac79050565b6001600160a01b03831660009081526020819052604090205481811015610aa85760405163391434e360e21b81526001600160a01b03851660048201526024810182905260448101839052606401610519565b6001600160a01b03841660009081526020819052604090209082900390555b6001600160a01b038216610ae357600280548290039055610b02565b6001600160a01b03821660009081526020819052604090208054820190555b816001600160a01b0316836001600160a01b03167fddf252ad1be2c89b69c2b068fc378daa952ba7f163c4a11628f55a4df523b3ef83604051610b4791815260200190565b60405180910390a3505050565b600060208083528351808285015260005b81811015610b8157858101830151858201604001528201610b65565b506000604082860101526040601f19601f8301168501019250505092915050565b80356001600160a01b0381168114610bb957600080fd5b919050565b60008060408385031215610bd157600080fd5b610bda83610ba2565b946020939093013593505050565b600080600060608486031215610bfd57600080fd5b610c0684610ba2565b9250610c1460208501610ba2565b9150604084013590509250925092565b600060208284031215610c3657600080fd5b610c3f82610ba2565b9392505050565b600060208284031215610c5857600080fd5b5035919050565b60008060408385031215610c7257600080fd5b610c7b83610ba2565b915060208301358015158114610c9057600080fd5b809150509250929050565b60008060408385031215610cae57600080fd5b610cb783610ba2565b9150610cc560208401610ba2565b90509250929050565b600181811c90821680610ce257607f821691505b602082108103610d0257634e487b7160e01b600052602260045260246000fd5b50919050565b634e487b7160e01b600052601160045260246000fd5b808202811582820484141761043e5761043e610d08565b600082610d5257634e487b7160e01b600052601260045260246000fd5b500490565b8181038181111561043e5761043e610d08565b8082018082111561043e5761043e610d0856fea2646970667358221220916ad3d57b6c9542e22a7bb461d6f7d5328fb7d140d363230540aba1f3d4a05664736f6c63430008140033",
  "linkReferences": {},
  "deployedLinkReferences": {}
}