{
  "_format": "hh-sol-artifact-1",
  "contractName": "ZexStaking",
  "sourceName": "contracts/ZexStaking.sol",
  "abi": [
    {
      "inputs": [
        {
          "internalType": "address",
          "name": "_token",
          "type": "address"
        }
      ],
      "stateMutability": "nonpayable",
      "type": "constructor"
    },
    {
      "inputs": [
        {
          "internalType": "address",
          "name": "owner",
          "type": "address"
        }
      ],
      "name": "OwnableInvalidOwner",
      "type": "error"
    },
    {
      "inputs": [
        {
          "internalType": "address",
          "name": "account",
          "type": "address"
        }
      ],
      "name": "OwnableUnauthorizedAccount",
      "type": "error"
    },
    {
      "inputs": [],
      "name": "ReentrancyGuardReentrantCall",
      "type": "error"
    },
    {
      "anonymous": false,
      "inputs": [
        {
          "indexed": false,
          "internalType": "uint256",
          "name": "newAPY",
          "type": "uint256"
        }
      ],
      "name": "APYUpdated",
      "type": "event"
    },
    {
      "anonymous": false,
      "inputs": [
        {
          "indexed": true,
          "internalType": "address",
          "name": "previousOwner",
          "type": "address"
        },
        {
          "indexed": true,
          "internalType": "address",
          "name": "newOwner",
          "type": "address"
        }
      ],
      "name": "OwnershipTransferred",
      "type": "event"
    },
    {
      "anonymous": false,
      "inputs": [
        {
          "indexed": true,
          "internalType": "address",
          "name": "user",
          "type": "address"
        },
        {
          "indexed": false,
          "internalType": "uint256",
          "name": "reward",
          "type": "uint256"
        }
      ],
      "name": "RewardClaimed",
      "type": "event"
    },
    {
      "anonymous": false,
      "inputs": [
        {
          "indexed": true,
          "internalType": "address",
          "name": "user",
          "type": "address"
        },
        {
          "indexed": false,
          "internalType": "uint256",
          "name": "amount",
          "type": "uint256"
        },
        {
          "indexed": false,
          "internalType": "uint256",
          "name": "lockupEndTime",
          "type": "uint256"
        }
      ],
      "name": "Staked",
      "type": "event"
    },
    {
      "anonymous": false,
      "inputs": [
        {
          "indexed": true,
          "internalType": "address",
          "name": "user",
          "type": "address"
        },
        {
          "indexed": false,
          "internalType": "uint256",
          "name": "amount",
          "type": "uint256"
        },
        {
          "indexed": false,
          "internalType": "uint256",
          "name": "penalty",
          "type": "uint256"
        }
      ],
      "name": "Withdrawn",
      "type": "event"
    },
    {
      "inputs": [],
      "name": "BURN_ADDRESS",
      "outputs": [
        {
          "internalType": "address",
          "name": "",
          "type": "address"
        }
      ],
      "stateMutability": "view",
      "type": "function"
    },
    {
      "inputs": [],
      "name": "SECONDS_IN_YEAR",
      "outputs": [
        {
          "internalType": "uint256",
          "name": "",
          "type": "uint256"
        }
      ],
      "stateMutability": "view",
      "type": "function"
    },
    {
      "inputs": [],
      "name": "apy",
      "outputs": [
        {
          "internalType": "uint256",
          "name": "",
          "type": "uint256"
        }
      ],
      "stateMutability": "view",
      "type": "function"
    },
    {
      "inputs": [
        {
          "internalType": "address",
          "name": "account",
          "type": "address"
        }
      ],
      "name": "balanceOf",
      "outputs": [
        {
          "internalType": "uint256",
          "name": "",
          "type": "uint256"
        }
      ],
      "stateMutability": "view",
      "type": "function"
    },
    {
      "inputs": [],
      "name": "claimReward",
      "outputs": [],
      "stateMutability": "nonpayable",
      "type": "function"
    },
    {
      "inputs": [],
      "name": "earlyPenalty",
      "outputs": [
        {
          "internalType": "uint256",
          "name": "",
          "type": "uint256"
        }
      ],
      "stateMutability": "view",
      "type": "function"
    },
    {
      "inputs": [
        {
          "internalType": "address",
          "name": "account",
          "type": "address"
        }
      ],
      "name": "earned",
      "outputs": [
        {
          "internalType": "uint256",
          "name": "",
          "type": "uint256"
        }
      ],
      "stateMutability": "view",
      "type": "function"
    },
    {
      "inputs": [],
      "name": "getReward",
      "outputs": [],
      "stateMutability": "nonpayable",
      "type": "function"
    },
    {
      "inputs": [
        {
          "internalType": "address",
          "name": "account",
          "type": "address"
        }
      ],
      "name": "getStakerInfo",
      "outputs": [
        {
          "internalType": "uint256",
          "name": "balance",
          "type": "uint256"
        },
        {
          "internalType": "uint256",
          "name": "currentEarned",
          "type": "uint256"
        },
        {
          "internalType": "uint256",
          "name": "lockupEnd",
          "type": "uint256"
        },
        {
          "internalType": "bool",
          "name": "isLocked",
          "type": "bool"
        }
      ],
      "stateMutability": "view",
      "type": "function"
    },
    {
      "inputs": [],
      "name": "lockupDuration",
      "outputs": [
        {
          "internalType": "uint256",
          "name": "",
          "type": "uint256"
        }
      ],
      "stateMutability": "view",
      "type": "function"
    },
    {
      "inputs": [],
      "name": "owner",
      "outputs": [
        {
          "internalType": "address",
          "name": "",
          "type": "address"
        }
      ],
      "stateMutability": "view",
      "type": "function"
    },
    {
      "inputs": [],
      "name": "penaltyAccumulatorPerShare",
      "outputs": [
        {
          "internalType": "uint256",
          "name": "",
          "type": "uint256"
        }
      ],
      "stateMutability": "view",
      "type": "function"
    },
    {
      "inputs": [],
      "name": "renounceOwnership",
      "outputs": [],
      "stateMutability": "nonpayable",
      "type": "function"
    },
    {
      "inputs": [],
      "name": "rewardRate",
      "outputs": [
        {
          "internalType": "uint256",
          "name": "",
          "type": "uint256"
        }
      ],
      "stateMutability": "view",
      "type": "function"
    },
    {
      "inputs": [
        {
          "internalType": "uint256",
          "name": "_apy",
          "type": "uint256"
        }
      ],
      "name": "setAPY",
      "outputs": [],
      "stateMutability": "nonpayable",
      "type": "function"
    },
    {
      "inputs": [
        {
          "internalType": "uint256",
          "name": "_days",
          "type": "uint256"
        }
      ],
      "name": "setLockupDuration",
      "outputs": [],
      "stateMutability": "nonpayable",
      "type": "function"
    },
    {
      "inputs": [
        {
          "internalType": "uint256",
          "name": "amount",
          "type": "uint256"
        }
      ],
      "name": "stake",
      "outputs": [],
      "stateMutability": "nonpayable",
      "type": "function"
    },
    {
      "inputs": [
        {
          "internalType": "address",
          "name": "",
          "type": "address"
        }
      ],
      "name": "stakers",
      "outputs": [
        {
          "internalType": "uint256",
          "name": "balance",
          "type": "uint256"
        },
        {
          "internalType": "uint256",
          "name": "lastStakeTime",
          "type": "uint256"
        },
        {
          "internalType": "uint256",
          "name": "lockupEndTime",
          "type": "uint256"
        },
        {
          "internalType": "uint256",
          "name": "pendingRewards",
          "type": "uint256"
        },
        {
          "internalType": "uint256",
          "name": "rewardDebt",
          "type": "uint256"
        }
      ],
      "stateMutability": "view",
      "type": "function"
    },
    {
      "inputs": [],
      "name": "token",
      "outputs": [
        {
          "internalType": "contract IBurnableERC20",
          "name": "",
          "type": "address"
        }
      ],
      "stateMutability": "view",
      "type": "function"
    },
    {
      "inputs": [],
      "name": "totalStaked",
      "outputs": [
        {
          "internalType": "uint256",
          "name": "",
          "type": "uint256"
        }
      ],
      "stateMutability": "view",
      "type": "function"
    },
    {
      "inputs": [],
      "name": "totalSupply",
      "outputs": [
        {
          "internalType": "uint256",
          "name": "",
          "type": "uint256"
        }
      ],
      "stateMutability": "view",
      "type": "function"
    },
    {
      "inputs": [
        {
          "internalType": "address",
          "name": "newOwner",
          "type": "address"
        }
      ],
      "name": "transferOwnership",
      "outputs": [],
      "stateMutability": "nonpayable",
      "type": "function"
    },
    {
      "inputs": [
        {
          "internalType": "uint256",
          "name": "amount",
          "type": "uint256"
        }
      ],
      "name": "withdraw",
      "outputs": [],
      "stateMutability": "nonpayable",
      "type": "function"
    }
  ],
  "bytecode": "0x6080604052603260035562278d00600455600a60055534801561002157600080fd5b50604051610f9f380380610f9f833981016040819052610040916100ec565b6001600055338061006b57604051631e4fbdf760e01b81526000600482015260240160405180910390fd5b6100748161009a565b50600280546001600160a01b0319166001600160a01b039290921691909117905561011c565b600180546001600160a01b038381166001600160a01b0319831681179093556040519116919082907f8be0079c531659141344cd1fd0a4f28419497f9722a3daafe3b4186f6b6457e090600090a35050565b6000602082840312156100fe57600080fd5b81516001600160a01b038116811461011557600080fd5b9392505050565b610e748061012b6000396000f3fe608060405234801561001057600080fd5b506004361061014c5760003560e01c8063733bdef0116100c3578063ab7c48411161007c578063ab7c4841146102e9578063b88a802f146102f2578063e7a1107f146102fa578063f2fde38b1461030d578063fc0c546a14610320578063fccc28131461033357600080fd5b8063733bdef0146102065780637b0a47ee1461023b578063817b1cd2146102435780638da5cb5b1461024c5780639168ae7214610271578063a694fc3a146102d657600080fd5b80632e1a7d4d116101155780632e1a7d4d146101a65780633bcfc4b8146101b95780633d18b912146101c25780635dcc9391146101ca57806370a08231146101d5578063715018a6146101fe57600080fd5b80628cc2621461015157806318160ddd146101775780631ada70a81461017f5780631ee734961461018857806324f45e6714610191575b600080fd5b61016461015f366004610d58565b61033c565b6040519081526020015b60405180910390f35b600754610164565b61016460045481565b61016460085481565b6101a461019f366004610d88565b610445565b005b6101a46101b4366004610d88565b610488565b61016460035481565b6101a461081e565b6101646301e1338081565b6101646101e3366004610d58565b6001600160a01b031660009081526006602052604090205490565b6101a4610828565b610219610214366004610d58565b61083a565b604080519485526020850193909352918301521515606082015260800161016e565b600354610164565b61016460075481565b6001546001600160a01b03165b6040516001600160a01b03909116815260200161016e565b6102ae61027f366004610d58565b600660205260009081526040902080546001820154600283015460038401546004909401549293919290919085565b604080519586526020860194909452928401919091526060830152608082015260a00161016e565b6101a46102e4366004610d88565b6108b4565b61016460055481565b6101a4610aaa565b6101a4610308366004610d88565b610c59565b6101a461031b366004610d58565b610c74565b600254610259906001600160a01b031681565b61025961dead81565b6001600160a01b0381166000908152600660209081526040808320815160a0810183528154808252600183015494820194909452600282015492810192909252600381015460608301526004015460808201529082036103a0576060015192915050565b60008160200151426103b29190610db7565b905060006103c56301e133806064610dd0565b600354845184916103d591610dd0565b6103df9190610dd0565b6103e99190610de7565b90506000670de0b6b3a764000084608001516008546104089190610db7565b85516104149190610dd0565b61041e9190610de7565b9050808285606001516104319190610e09565b61043b9190610e09565b9695505050505050565b61044d610caf565b60038190556040518181527f5d96611557274413c64267972d202ca41009c399954bcb4cbab17d2a5156fbb09060200160405180910390a150565b610490610cdc565b3380156104d0576104a08161033c565b6001600160a01b038216600090815260066020526040902060038101919091554260018201556008546004909101555b600082116105195760405162461bcd60e51b8152602060048201526011602482015270043616e6e6f74207769746864726177203607c1b60448201526064015b60405180910390fd5b3360009081526006602052604090205482111561056f5760405162461bcd60e51b8152602060048201526014602482015273496e73756666696369656e742062616c616e636560601b6044820152606401610510565b336000908152600660205260408120805484929061058e908490610db7565b9250508190555081600760008282546105a79190610db7565b9091555050336000908152600660205260408120600201544210156105e3576064600554846105d69190610dd0565b6105e09190610de7565b90505b60006105ef8285610db7565b90508115610719576000610604600284610de7565b905060006106128285610db7565b600254604051630852cd8d60e31b8152600481018590529192506001600160a01b0316906342966c6890602401600060405180830381600087803b15801561065957600080fd5b505af115801561066d573d6000803e3d6000fd5b50505050600060075411156106b75760075461069182670de0b6b3a7640000610dd0565b61069b9190610de7565b600860008282546106ac9190610e09565b909155506107169050565b600254604051630852cd8d60e31b8152600481018390526001600160a01b03909116906342966c6890602401600060405180830381600087803b1580156106fd57600080fd5b505af1158015610711573d6000803e3d6000fd5b505050505b50505b60025460405163a9059cbb60e01b8152336004820152602481018390526001600160a01b039091169063a9059cbb906044016020604051808303816000875af115801561076a573d6000803e3d6000fd5b505050506040513d601f19601f8201168201806040525081019061078e9190610e1c565b6107d35760405162461bcd60e51b815260206004820152601660248201527514185e5bdd5d081d1c985b9cd9995c8819985a5b195960521b6044820152606401610510565b604080518581526020810184905233917f92ccf450a286a957af52509bc1c9939d1a6a481783e142e41e2499f0bb66ebc6910160405180910390a250505061081b6001600055565b50565b610826610aaa565b565b610830610caf565b6108266000610d06565b6001600160a01b0381166000908152600660209081526040808320815160a08101835281548082526001830154948201949094526002820154928101929092526003810154606083015260040154608082015282918291829161089c8761033c565b60409290920151909791965094504285119350915050565b6108bc610cdc565b3380156108fc576108cc8161033c565b6001600160a01b038216600090815260066020526040902060038101919091554260018201556008546004909101555b6000821161093d5760405162461bcd60e51b815260206004820152600e60248201526d043616e6e6f74207374616b6520360941b6044820152606401610510565b336000908152600660205260408120805484929061095c908490610e09565b909155505060045461096e9042610e09565b3360009081526006602052604081206002019190915560078054849290610996908490610e09565b90915550506002546040516323b872dd60e01b8152336004820152306024820152604481018490526001600160a01b03909116906323b872dd906064016020604051808303816000875af11580156109f2573d6000803e3d6000fd5b505050506040513d601f19601f82011682018060405250810190610a169190610e1c565b610a545760405162461bcd60e51b815260206004820152600f60248201526e151c985b9cd9995c8819985a5b1959608a1b6044820152606401610510565b33600081815260066020908152604091829020600201548251868152918201527f1449c6dd7851abc30abf37f57715f492010519147cc2652fbc38202c18a6ee90910160405180910390a25061081b6001600055565b610ab2610cdc565b338015610af257610ac28161033c565b6001600160a01b038216600090815260066020526040902060038101919091554260018201556008546004909101555b3360009081526006602052604090206003015480610b485760405162461bcd60e51b81526020600482015260136024820152724e6f207265776172647320746f20636c61696d60681b6044820152606401610510565b3360008181526006602052604080822060030191909155600254905163a9059cbb60e01b81526004810192909252602482018390526001600160a01b03169063a9059cbb906044016020604051808303816000875af1158015610baf573d6000803e3d6000fd5b505050506040513d601f19601f82011682018060405250810190610bd39190610e1c565b610c185760405162461bcd60e51b815260206004820152601660248201527514995dd85c99081d1c985b9cd9995c8819985a5b195960521b6044820152606401610510565b60405181815233907f106f923f993c2149d49b4255ff723acafa1f2d94393f561d3eda32ae348f72419060200160405180910390a250506108266001600055565b610c61610caf565b610c6e8162015180610dd0565b60045550565b610c7c610caf565b6001600160a01b038116610ca657604051631e4fbdf760e01b815260006004820152602401610510565b61081b81610d06565b6001546001600160a01b031633146108265760405163118cdaa760e01b8152336004820152602401610510565b600260005403610cff57604051633ee5aeb560e01b815260040160405180910390fd5b6002600055565b600180546001600160a01b038381166001600160a01b0319831681179093556040519116919082907f8be0079c531659141344cd1fd0a4f28419497f9722a3daafe3b4186f6b6457e090600090a35050565b600060208284031215610d6a57600080fd5b81356001600160a01b0381168114610d8157600080fd5b9392505050565b600060208284031215610d9a57600080fd5b5035919050565b634e487b7160e01b600052601160045260246000fd5b81810381811115610dca57610dca610da1565b92915050565b8082028115828204841417610dca57610dca610da1565b600082610e0457634e487b7160e01b600052601260045260246000fd5b500490565b80820180821115610dca57610dca610da1565b600060208284031215610e2e57600080fd5b81518015158114610d8157600080fdfea26469706673582212206ad2b2c79d2c9c07e11ef3061c02b84946581ebeed222568c70267d92d16837064736f6c63430008140033",
  "linkReferences": {},
  "deployedLinkReferences": {}
}