{
  "_format": "hh-sol-artifact-1",
  "contractName": "ZexStaking",
  "sourceName": "contracts/ZexStaking.sol",
  "abi": [
    {
      "inputs": [
        {
          "internalType": "address",
          "name": "_stakingToken",
          "type": "address"
        },
        {
          "internalType": "address",
          "name": "_rewardToken",
          "type": "address"
        }
      ],
      "stateMutability": "nonpayable",
      "type": "constructor"
    },
    {
      "inputs": [
        {
          "internalType": "address",
          "name": "owner",
          "type": "address"
        }
      ],
      "name": "OwnableInvalidOwner",
      "type": "error"
    },
    {
      "inputs": [
        {
          "internalType": "address",
          "name": "account",
          "type": "address"
        }
      ],
      "name": "OwnableUnauthorizedAccount",
      "type": "error"
    },
    {
      "inputs": [],
      "name": "ReentrancyGuardReentrantCall",
      "type": "error"
    },
    {
      "anonymous": false,
      "inputs": [
        {
          "indexed": true,
          "internalType": "address",
          "name": "previousOwner",
          "type": "address"
        },
        {
          "indexed": true,
          "internalType": "address",
          "name": "newOwner",
          "type": "address"
        }
      ],
      "name": "OwnershipTransferred",
      "type": "event"
    },
    {
      "anonymous": false,
      "inputs": [
        {
          "indexed": true,
          "internalType": "address",
          "name": "user",
          "type": "address"
        },
        {
          "indexed": false,
          "internalType": "uint256",
          "name": "reward",
          "type": "uint256"
        }
      ],
      "name": "RewardPaid",
      "type": "event"
    },
    {
      "anonymous": false,
      "inputs": [
        {
          "indexed": false,
          "internalType": "uint256",
          "name": "oldRate",
          "type": "uint256"
        },
        {
          "indexed": false,
          "internalType": "uint256",
          "name": "newRate",
          "type": "uint256"
        }
      ],
      "name": "RewardRateUpdated",
      "type": "event"
    },
    {
      "anonymous": false,
      "inputs": [
        {
          "indexed": true,
          "internalType": "address",
          "name": "user",
          "type": "address"
        },
        {
          "indexed": false,
          "internalType": "uint256",
          "name": "amount",
          "type": "uint256"
        }
      ],
      "name": "Staked",
      "type": "event"
    },
    {
      "anonymous": false,
      "inputs": [
        {
          "indexed": true,
          "internalType": "address",
          "name": "user",
          "type": "address"
        },
        {
          "indexed": false,
          "internalType": "uint256",
          "name": "amount",
          "type": "uint256"
        }
      ],
      "name": "Withdrawn",
      "type": "event"
    },
    {
      "inputs": [
        {
          "internalType": "address",
          "name": "account",
          "type": "address"
        }
      ],
      "name": "balanceOf",
      "outputs": [
        {
          "internalType": "uint256",
          "name": "",
          "type": "uint256"
        }
      ],
      "stateMutability": "view",
      "type": "function"
    },
    {
      "inputs": [
        {
          "internalType": "address",
          "name": "account",
          "type": "address"
        }
      ],
      "name": "earned",
      "outputs": [
        {
          "internalType": "uint256",
          "name": "",
          "type": "uint256"
        }
      ],
      "stateMutability": "view",
      "type": "function"
    },
    {
      "inputs": [],
      "name": "getReward",
      "outputs": [],
      "stateMutability": "nonpayable",
      "type": "function"
    },
    {
      "inputs": [],
      "name": "lastUpdateTime",
      "outputs": [
        {
          "internalType": "uint256",
          "name": "",
          "type": "uint256"
        }
      ],
      "stateMutability": "view",
      "type": "function"
    },
    {
      "inputs": [],
      "name": "owner",
      "outputs": [
        {
          "internalType": "address",
          "name": "",
          "type": "address"
        }
      ],
      "stateMutability": "view",
      "type": "function"
    },
    {
      "inputs": [],
      "name": "renounceOwnership",
      "outputs": [],
      "stateMutability": "nonpayable",
      "type": "function"
    },
    {
      "inputs": [],
      "name": "rewardPerToken",
      "outputs": [
        {
          "internalType": "uint256",
          "name": "",
          "type": "uint256"
        }
      ],
      "stateMutability": "view",
      "type": "function"
    },
    {
      "inputs": [],
      "name": "rewardPerTokenStored",
      "outputs": [
        {
          "internalType": "uint256",
          "name": "",
          "type": "uint256"
        }
      ],
      "stateMutability": "view",
      "type": "function"
    },
    {
      "inputs": [],
      "name": "rewardRate",
      "outputs": [
        {
          "internalType": "uint256",
          "name": "",
          "type": "uint256"
        }
      ],
      "stateMutability": "view",
      "type": "function"
    },
    {
      "inputs": [],
      "name": "rewardToken",
      "outputs": [
        {
          "internalType": "contract IERC20",
          "name": "",
          "type": "address"
        }
      ],
      "stateMutability": "view",
      "type": "function"
    },
    {
      "inputs": [
        {
          "internalType": "address",
          "name": "",
          "type": "address"
        }
      ],
      "name": "rewards",
      "outputs": [
        {
          "internalType": "uint256",
          "name": "",
          "type": "uint256"
        }
      ],
      "stateMutability": "view",
      "type": "function"
    },
    {
      "inputs": [
        {
          "internalType": "uint256",
          "name": "_rewardRate",
          "type": "uint256"
        }
      ],
      "name": "setRewardRate",
      "outputs": [],
      "stateMutability": "nonpayable",
      "type": "function"
    },
    {
      "inputs": [
        {
          "internalType": "uint256",
          "name": "amount",
          "type": "uint256"
        }
      ],
      "name": "stake",
      "outputs": [],
      "stateMutability": "nonpayable",
      "type": "function"
    },
    {
      "inputs": [],
      "name": "stakingToken",
      "outputs": [
        {
          "internalType": "contract IERC20",
          "name": "",
          "type": "address"
        }
      ],
      "stateMutability": "view",
      "type": "function"
    },
    {
      "inputs": [],
      "name": "totalSupply",
      "outputs": [
        {
          "internalType": "uint256",
          "name": "",
          "type": "uint256"
        }
      ],
      "stateMutability": "view",
      "type": "function"
    },
    {
      "inputs": [
        {
          "internalType": "address",
          "name": "newOwner",
          "type": "address"
        }
      ],
      "name": "transferOwnership",
      "outputs": [],
      "stateMutability": "nonpayable",
      "type": "function"
    },
    {
      "inputs": [
        {
          "internalType": "address",
          "name": "",
          "type": "address"
        }
      ],
      "name": "userRewardPerTokenPaid",
      "outputs": [
        {
          "internalType": "uint256",
          "name": "",
          "type": "uint256"
        }
      ],
      "stateMutability": "view",
      "type": "function"
    },
    {
      "inputs": [
        {
          "internalType": "uint256",
          "name": "amount",
          "type": "uint256"
        }
      ],
      "name": "withdraw",
      "outputs": [],
      "stateMutability": "nonpayable",
      "type": "function"
    }
  ],
  "bytecode": "0x608060405260646004553480156200001657600080fd5b5060405162001afa38038062001afa83398181016040528101906200003c919062000286565b336001600081905550600073ffffffffffffffffffffffffffffffffffffffff168173ffffffffffffffffffffffffffffffffffffffff1603620000ba5760006040517f1e4fbdf7000000000000000000000000000000000000000000000000000000008152600401620000b19190620002de565b60405180910390fd5b620000cb816200015660201b60201c565b5081600260006101000a81548173ffffffffffffffffffffffffffffffffffffffff021916908373ffffffffffffffffffffffffffffffffffffffff16021790555080600360006101000a81548173ffffffffffffffffffffffffffffffffffffffff021916908373ffffffffffffffffffffffffffffffffffffffff1602179055505050620002fb565b6000600160009054906101000a900473ffffffffffffffffffffffffffffffffffffffff16905081600160006101000a81548173ffffffffffffffffffffffffffffffffffffffff021916908373ffffffffffffffffffffffffffffffffffffffff1602179055508173ffffffffffffffffffffffffffffffffffffffff168173ffffffffffffffffffffffffffffffffffffffff167f8be0079c531659141344cd1fd0a4f28419497f9722a3daafe3b4186f6b6457e060405160405180910390a35050565b600080fd5b600073ffffffffffffffffffffffffffffffffffffffff82169050919050565b60006200024e8262000221565b9050919050565b620002608162000241565b81146200026c57600080fd5b50565b600081519050620002808162000255565b92915050565b60008060408385031215620002a0576200029f6200021c565b5b6000620002b0858286016200026f565b9250506020620002c3858286016200026f565b9150509250929050565b620002d88162000241565b82525050565b6000602082019050620002f56000830184620002cd565b92915050565b6117ef806200030b6000396000f3fe608060405234801561001057600080fd5b50600436106101155760003560e01c80638b876347116100a2578063c8f33c9111610071578063c8f33c91146102ba578063cd3daf9d146102d8578063df136d65146102f6578063f2fde38b14610314578063f7c618c11461033057610115565b80638b876347146102345780638da5cb5b146102645780639e447fc614610282578063a694fc3a1461029e57610115565b80633d18b912116100e95780633d18b912146101b457806370a08231146101be578063715018a6146101ee57806372f702f3146101f85780637b0a47ee1461021657610115565b80628cc2621461011a5780630700037d1461014a57806318160ddd1461017a5780632e1a7d4d14610198575b600080fd5b610134600480360381019061012f9190611273565b61034e565b60405161014191906112b9565b60405180910390f35b610164600480360381019061015f9190611273565b610450565b60405161017191906112b9565b60405180910390f35b610182610468565b60405161018f91906112b9565b60405180910390f35b6101b260048036038101906101ad9190611300565b610472565b005b6101bc6107ca565b005b6101d860048036038101906101d39190611273565b610a81565b6040516101e591906112b9565b60405180910390f35b6101f6610aca565b005b610200610ade565b60405161020d919061138c565b60405180910390f35b61021e610b04565b60405161022b91906112b9565b60405180910390f35b61024e60048036038101906102499190611273565b610b0a565b60405161025b91906112b9565b60405180910390f35b61026c610b22565b60405161027991906113b6565b60405180910390f35b61029c60048036038101906102979190611300565b610b4c565b005b6102b860048036038101906102b39190611300565b610c78565b005b6102c2610f50565b6040516102cf91906112b9565b60405180910390f35b6102e0610f56565b6040516102ed91906112b9565b60405180910390f35b6102fe610fb9565b60405161030b91906112b9565b60405180910390f35b61032e60048036038101906103299190611273565b610fbf565b005b610338611045565b604051610345919061138c565b60405180910390f35b6000600860008373ffffffffffffffffffffffffffffffffffffffff1673ffffffffffffffffffffffffffffffffffffffff16815260200190815260200160002054670de0b6b3a7640000600760008573ffffffffffffffffffffffffffffffffffffffff1673ffffffffffffffffffffffffffffffffffffffff168152602001908152602001600020546103e1610f56565b6103eb9190611400565b600a60008673ffffffffffffffffffffffffffffffffffffffff1673ffffffffffffffffffffffffffffffffffffffff168152602001908152602001600020546104359190611434565b61043f91906114a5565b61044991906114d6565b9050919050565b60086020528060005260406000206000915090505481565b6000600954905090565b61047a61106b565b33610483610f56565b60068190555042600581905550600073ffffffffffffffffffffffffffffffffffffffff168173ffffffffffffffffffffffffffffffffffffffff1614610557576104cd8161034e565b600860008373ffffffffffffffffffffffffffffffffffffffff1673ffffffffffffffffffffffffffffffffffffffff16815260200190815260200160002081905550600654600760008373ffffffffffffffffffffffffffffffffffffffff1673ffffffffffffffffffffffffffffffffffffffff168152602001908152602001600020819055505b6000821161059a576040517f08c379a000000000000000000000000000000000000000000000000000000000815260040161059190611567565b60405180910390fd5b81600a60003373ffffffffffffffffffffffffffffffffffffffff1673ffffffffffffffffffffffffffffffffffffffff16815260200190815260200160002054101561061c576040517f08c379a0000000000000000000000000000000000000000000000000000000008152600401610613906115d3565b60405180910390fd5b816009600082825461062e9190611400565b9250508190555081600a60003373ffffffffffffffffffffffffffffffffffffffff1673ffffffffffffffffffffffffffffffffffffffff16815260200190815260200160002060008282546106849190611400565b925050819055506000600260009054906101000a900473ffffffffffffffffffffffffffffffffffffffff1673ffffffffffffffffffffffffffffffffffffffff1663a9059cbb33856040518363ffffffff1660e01b81526004016106ea9291906115f3565b6020604051808303816000875af1158015610709573d6000803e3d6000fd5b505050506040513d601f19601f8201168201806040525081019061072d9190611654565b90508061076f576040517f08c379a0000000000000000000000000000000000000000000000000000000008152600401610766906116cd565b60405180910390fd5b3373ffffffffffffffffffffffffffffffffffffffff167f7084f5476618d8e60b11ef0d7d3f06914655adb8793e28ff7f018d4c76d505d5846040516107b591906112b9565b60405180910390a250506107c76110b1565b50565b6107d261106b565b336107db610f56565b60068190555042600581905550600073ffffffffffffffffffffffffffffffffffffffff168173ffffffffffffffffffffffffffffffffffffffff16146108af576108258161034e565b600860008373ffffffffffffffffffffffffffffffffffffffff1673ffffffffffffffffffffffffffffffffffffffff16815260200190815260200160002081905550600654600760008373ffffffffffffffffffffffffffffffffffffffff1673ffffffffffffffffffffffffffffffffffffffff168152602001908152602001600020819055505b6000600860003373ffffffffffffffffffffffffffffffffffffffff1673ffffffffffffffffffffffffffffffffffffffff1681526020019081526020016000205490506000811115610a75576000600860003373ffffffffffffffffffffffffffffffffffffffff1673ffffffffffffffffffffffffffffffffffffffff168152602001908152602001600020819055506000600360009054906101000a900473ffffffffffffffffffffffffffffffffffffffff1673ffffffffffffffffffffffffffffffffffffffff1663a9059cbb33846040518363ffffffff1660e01b81526004016109a09291906115f3565b6020604051808303816000875af11580156109bf573d6000803e3d6000fd5b505050506040513d601f19601f820116820180604052508101906109e39190611654565b905080610a25576040517f08c379a0000000000000000000000000000000000000000000000000000000008152600401610a1c906116cd565b60405180910390fd5b3373ffffffffffffffffffffffffffffffffffffffff167fe2403640ba68fed3a2f88b7557551d1993f84b99bb10ff833f0cf8db0c5e048683604051610a6b91906112b9565b60405180910390a2505b5050610a7f6110b1565b565b6000600a60008373ffffffffffffffffffffffffffffffffffffffff1673ffffffffffffffffffffffffffffffffffffffff168152602001908152602001600020549050919050565b610ad26110bb565b610adc6000611142565b565b600260009054906101000a900473ffffffffffffffffffffffffffffffffffffffff1681565b60045481565b60076020528060005260406000206000915090505481565b6000600160009054906101000a900473ffffffffffffffffffffffffffffffffffffffff16905090565b610b546110bb565b6000610b5e610f56565b60068190555042600581905550600073ffffffffffffffffffffffffffffffffffffffff168173ffffffffffffffffffffffffffffffffffffffff1614610c3257610ba88161034e565b600860008373ffffffffffffffffffffffffffffffffffffffff1673ffffffffffffffffffffffffffffffffffffffff16815260200190815260200160002081905550600654600760008373ffffffffffffffffffffffffffffffffffffffff1673ffffffffffffffffffffffffffffffffffffffff168152602001908152602001600020819055505b7fc390a98ace15a7bb6bab611eedfdbb2685043b241a869420043cdfb23ccfee5060045483604051610c659291906116ed565b60405180910390a1816004819055505050565b610c8061106b565b33610c89610f56565b60068190555042600581905550600073ffffffffffffffffffffffffffffffffffffffff168173ffffffffffffffffffffffffffffffffffffffff1614610d5d57610cd38161034e565b600860008373ffffffffffffffffffffffffffffffffffffffff1673ffffffffffffffffffffffffffffffffffffffff16815260200190815260200160002081905550600654600760008373ffffffffffffffffffffffffffffffffffffffff1673ffffffffffffffffffffffffffffffffffffffff168152602001908152602001600020819055505b60008211610da0576040517f08c379a0000000000000000000000000000000000000000000000000000000008152600401610d9790611762565b60405180910390fd5b8160096000828254610db291906114d6565b9250508190555081600a60003373ffffffffffffffffffffffffffffffffffffffff1673ffffffffffffffffffffffffffffffffffffffff1681526020019081526020016000206000828254610e0891906114d6565b925050819055506000600260009054906101000a900473ffffffffffffffffffffffffffffffffffffffff1673ffffffffffffffffffffffffffffffffffffffff166323b872dd3330866040518463ffffffff1660e01b8152600401610e7093929190611782565b6020604051808303816000875af1158015610e8f573d6000803e3d6000fd5b505050506040513d601f19601f82011682018060405250810190610eb39190611654565b905080610ef5576040517f08c379a0000000000000000000000000000000000000000000000000000000008152600401610eec906116cd565b60405180910390fd5b3373ffffffffffffffffffffffffffffffffffffffff167f9e71bc8eea02a63969f509818f2dafb9254532904319f9dbda79b67bd34a5f3d84604051610f3b91906112b9565b60405180910390a25050610f4d6110b1565b50565b60055481565b60008060095403610f6b576006549050610fb6565b600954670de0b6b3a764000060045460055442610f889190611400565b610f929190611434565b610f9c9190611434565b610fa691906114a5565b600654610fb391906114d6565b90505b90565b60065481565b610fc76110bb565b600073ffffffffffffffffffffffffffffffffffffffff168173ffffffffffffffffffffffffffffffffffffffff16036110395760006040517f1e4fbdf700000000000000000000000000000000000000000000000000000000815260040161103091906113b6565b60405180910390fd5b61104281611142565b50565b600360009054906101000a900473ffffffffffffffffffffffffffffffffffffffff1681565b6002600054036110a7576040517f3ee5aeb500000000000000000000000000000000000000000000000000000000815260040160405180910390fd5b6002600081905550565b6001600081905550565b6110c3611208565b73ffffffffffffffffffffffffffffffffffffffff166110e1610b22565b73ffffffffffffffffffffffffffffffffffffffff161461114057611104611208565b6040517f118cdaa700000000000000000000000000000000000000000000000000000000815260040161113791906113b6565b60405180910390fd5b565b6000600160009054906101000a900473ffffffffffffffffffffffffffffffffffffffff16905081600160006101000a81548173ffffffffffffffffffffffffffffffffffffffff021916908373ffffffffffffffffffffffffffffffffffffffff1602179055508173ffffffffffffffffffffffffffffffffffffffff168173ffffffffffffffffffffffffffffffffffffffff167f8be0079c531659141344cd1fd0a4f28419497f9722a3daafe3b4186f6b6457e060405160405180910390a35050565b600033905090565b600080fd5b600073ffffffffffffffffffffffffffffffffffffffff82169050919050565b600061124082611215565b9050919050565b61125081611235565b811461125b57600080fd5b50565b60008135905061126d81611247565b92915050565b60006020828403121561128957611288611210565b5b60006112978482850161125e565b91505092915050565b6000819050919050565b6112b3816112a0565b82525050565b60006020820190506112ce60008301846112aa565b92915050565b6112dd816112a0565b81146112e857600080fd5b50565b6000813590506112fa816112d4565b92915050565b60006020828403121561131657611315611210565b5b6000611324848285016112eb565b91505092915050565b6000819050919050565b600061135261134d61134884611215565b61132d565b611215565b9050919050565b600061136482611337565b9050919050565b600061137682611359565b9050919050565b6113868161136b565b82525050565b60006020820190506113a1600083018461137d565b92915050565b6113b081611235565b82525050565b60006020820190506113cb60008301846113a7565b92915050565b7f4e487b7100000000000000000000000000000000000000000000000000000000600052601160045260246000fd5b600061140b826112a0565b9150611416836112a0565b925082820390508181111561142e5761142d6113d1565b5b92915050565b600061143f826112a0565b915061144a836112a0565b9250828202611458816112a0565b9150828204841483151761146f5761146e6113d1565b5b5092915050565b7f4e487b7100000000000000000000000000000000000000000000000000000000600052601260045260246000fd5b60006114b0826112a0565b91506114bb836112a0565b9250826114cb576114ca611476565b5b828204905092915050565b60006114e1826112a0565b91506114ec836112a0565b9250828201905080821115611504576115036113d1565b5b92915050565b600082825260208201905092915050565b7f43616e6e6f742077697468647261772030000000000000000000000000000000600082015250565b600061155160118361150a565b915061155c8261151b565b602082019050919050565b6000602082019050818103600083015261158081611544565b9050919050565b7f496e73756666696369656e74207374616b65642062616c616e63650000000000600082015250565b60006115bd601b8361150a565b91506115c882611587565b602082019050919050565b600060208201905081810360008301526115ec816115b0565b9050919050565b600060408201905061160860008301856113a7565b61161560208301846112aa565b9392505050565b60008115159050919050565b6116318161161c565b811461163c57600080fd5b50565b60008151905061164e81611628565b92915050565b60006020828403121561166a57611669611210565b5b60006116788482850161163f565b91505092915050565b7f5472616e73666572206661696c65640000000000000000000000000000000000600082015250565b60006116b7600f8361150a565b91506116c282611681565b602082019050919050565b600060208201905081810360008301526116e6816116aa565b9050919050565b600060408201905061170260008301856112aa565b61170f60208301846112aa565b9392505050565b7f43616e6e6f74207374616b652030000000000000000000000000000000000000600082015250565b600061174c600e8361150a565b915061175782611716565b602082019050919050565b6000602082019050818103600083015261177b8161173f565b9050919050565b600060608201905061179760008301866113a7565b6117a460208301856113a7565b6117b160408301846112aa565b94935050505056fea2646970667358221220aafede3e6e0840ad45af0ea24adff06cf59cba6c4010bf8915b27f826853314d64736f6c63430008140033",
  "linkReferences": {},
  "deployedLinkReferences": {}
}