{
  "_format": "hh-sol-artifact-1",
  "contractName": "ZexStaking",
  "sourceName": "contracts/ZexStaking.sol",
  "abi": [
    {
      "inputs": [
        {
          "internalType": "address",
          "name": "_token",
          "type": "address"
        }
      ],
      "stateMutability": "nonpayable",
      "type": "constructor"
    },
    {
      "inputs": [
        {
          "internalType": "address",
          "name": "owner",
          "type": "address"
        }
      ],
      "name": "OwnableInvalidOwner",
      "type": "error"
    },
    {
      "inputs": [
        {
          "internalType": "address",
          "name": "account",
          "type": "address"
        }
      ],
      "name": "OwnableUnauthorizedAccount",
      "type": "error"
    },
    {
      "inputs": [],
      "name": "ReentrancyGuardReentrantCall",
      "type": "error"
    },
    {
      "anonymous": false,
      "inputs": [
        {
          "indexed": false,
          "internalType": "uint256",
          "name": "newAPY",
          "type": "uint256"
        }
      ],
      "name": "APYUpdated",
      "type": "event"
    },
    {
      "anonymous": false,
      "inputs": [
        {
          "indexed": true,
          "internalType": "address",
          "name": "previousOwner",
          "type": "address"
        },
        {
          "indexed": true,
          "internalType": "address",
          "name": "newOwner",
          "type": "address"
        }
      ],
      "name": "OwnershipTransferred",
      "type": "event"
    },
    {
      "anonymous": false,
      "inputs": [
        {
          "indexed": true,
          "internalType": "address",
          "name": "user",
          "type": "address"
        },
        {
          "indexed": false,
          "internalType": "uint256",
          "name": "reward",
          "type": "uint256"
        }
      ],
      "name": "RewardClaimed",
      "type": "event"
    },
    {
      "anonymous": false,
      "inputs": [
        {
          "indexed": true,
          "internalType": "address",
          "name": "user",
          "type": "address"
        },
        {
          "indexed": false,
          "internalType": "uint256",
          "name": "amount",
          "type": "uint256"
        },
        {
          "indexed": false,
          "internalType": "uint256",
          "name": "lockupEndTime",
          "type": "uint256"
        }
      ],
      "name": "Staked",
      "type": "event"
    },
    {
      "anonymous": false,
      "inputs": [
        {
          "indexed": true,
          "internalType": "address",
          "name": "user",
          "type": "address"
        },
        {
          "indexed": false,
          "internalType": "uint256",
          "name": "amount",
          "type": "uint256"
        },
        {
          "indexed": false,
          "internalType": "uint256",
          "name": "penalty",
          "type": "uint256"
        }
      ],
      "name": "Withdrawn",
      "type": "event"
    },
    {
      "inputs": [],
      "name": "BURN_ADDRESS",
      "outputs": [
        {
          "internalType": "address",
          "name": "",
          "type": "address"
        }
      ],
      "stateMutability": "view",
      "type": "function"
    },
    {
      "inputs": [],
      "name": "SECONDS_IN_YEAR",
      "outputs": [
        {
          "internalType": "uint256",
          "name": "",
          "type": "uint256"
        }
      ],
      "stateMutability": "view",
      "type": "function"
    },
    {
      "inputs": [],
      "name": "apy",
      "outputs": [
        {
          "internalType": "uint256",
          "name": "",
          "type": "uint256"
        }
      ],
      "stateMutability": "view",
      "type": "function"
    },
    {
      "inputs": [
        {
          "internalType": "address",
          "name": "account",
          "type": "address"
        }
      ],
      "name": "balanceOf",
      "outputs": [
        {
          "internalType": "uint256",
          "name": "",
          "type": "uint256"
        }
      ],
      "stateMutability": "view",
      "type": "function"
    },
    {
      "inputs": [],
      "name": "claimReward",
      "outputs": [],
      "stateMutability": "nonpayable",
      "type": "function"
    },
    {
      "inputs": [],
      "name": "earlyPenalty",
      "outputs": [
        {
          "internalType": "uint256",
          "name": "",
          "type": "uint256"
        }
      ],
      "stateMutability": "view",
      "type": "function"
    },
    {
      "inputs": [
        {
          "internalType": "address",
          "name": "account",
          "type": "address"
        }
      ],
      "name": "earned",
      "outputs": [
        {
          "internalType": "uint256",
          "name": "",
          "type": "uint256"
        }
      ],
      "stateMutability": "view",
      "type": "function"
    },
    {
      "inputs": [],
      "name": "getReward",
      "outputs": [],
      "stateMutability": "nonpayable",
      "type": "function"
    },
    {
      "inputs": [
        {
          "internalType": "address",
          "name": "account",
          "type": "address"
        }
      ],
      "name": "getStakerInfo",
      "outputs": [
        {
          "internalType": "uint256",
          "name": "balance",
          "type": "uint256"
        },
        {
          "internalType": "uint256",
          "name": "currentEarned",
          "type": "uint256"
        },
        {
          "internalType": "uint256",
          "name": "lockupEnd",
          "type": "uint256"
        },
        {
          "internalType": "bool",
          "name": "isLocked",
          "type": "bool"
        }
      ],
      "stateMutability": "view",
      "type": "function"
    },
    {
      "inputs": [],
      "name": "lockupDuration",
      "outputs": [
        {
          "internalType": "uint256",
          "name": "",
          "type": "uint256"
        }
      ],
      "stateMutability": "view",
      "type": "function"
    },
    {
      "inputs": [],
      "name": "owner",
      "outputs": [
        {
          "internalType": "address",
          "name": "",
          "type": "address"
        }
      ],
      "stateMutability": "view",
      "type": "function"
    },
    {
      "inputs": [],
      "name": "renounceOwnership",
      "outputs": [],
      "stateMutability": "nonpayable",
      "type": "function"
    },
    {
      "inputs": [],
      "name": "rewardRate",
      "outputs": [
        {
          "internalType": "uint256",
          "name": "",
          "type": "uint256"
        }
      ],
      "stateMutability": "view",
      "type": "function"
    },
    {
      "inputs": [
        {
          "internalType": "uint256",
          "name": "_apy",
          "type": "uint256"
        }
      ],
      "name": "setAPY",
      "outputs": [],
      "stateMutability": "nonpayable",
      "type": "function"
    },
    {
      "inputs": [
        {
          "internalType": "uint256",
          "name": "_days",
          "type": "uint256"
        }
      ],
      "name": "setLockupDuration",
      "outputs": [],
      "stateMutability": "nonpayable",
      "type": "function"
    },
    {
      "inputs": [
        {
          "internalType": "uint256",
          "name": "amount",
          "type": "uint256"
        }
      ],
      "name": "stake",
      "outputs": [],
      "stateMutability": "nonpayable",
      "type": "function"
    },
    {
      "inputs": [
        {
          "internalType": "address",
          "name": "",
          "type": "address"
        }
      ],
      "name": "stakers",
      "outputs": [
        {
          "internalType": "uint256",
          "name": "balance",
          "type": "uint256"
        },
        {
          "internalType": "uint256",
          "name": "lastStakeTime",
          "type": "uint256"
        },
        {
          "internalType": "uint256",
          "name": "lockupEndTime",
          "type": "uint256"
        },
        {
          "internalType": "uint256",
          "name": "pendingRewards",
          "type": "uint256"
        }
      ],
      "stateMutability": "view",
      "type": "function"
    },
    {
      "inputs": [],
      "name": "token",
      "outputs": [
        {
          "internalType": "contract IBurnableERC20",
          "name": "",
          "type": "address"
        }
      ],
      "stateMutability": "view",
      "type": "function"
    },
    {
      "inputs": [],
      "name": "totalStaked",
      "outputs": [
        {
          "internalType": "uint256",
          "name": "",
          "type": "uint256"
        }
      ],
      "stateMutability": "view",
      "type": "function"
    },
    {
      "inputs": [],
      "name": "totalSupply",
      "outputs": [
        {
          "internalType": "uint256",
          "name": "",
          "type": "uint256"
        }
      ],
      "stateMutability": "view",
      "type": "function"
    },
    {
      "inputs": [
        {
          "internalType": "address",
          "name": "newOwner",
          "type": "address"
        }
      ],
      "name": "transferOwnership",
      "outputs": [],
      "stateMutability": "nonpayable",
      "type": "function"
    },
    {
      "inputs": [
        {
          "internalType": "uint256",
          "name": "amount",
          "type": "uint256"
        }
      ],
      "name": "withdraw",
      "outputs": [],
      "stateMutability": "nonpayable",
      "type": "function"
    }
  ],
  "bytecode": "0x6080604052603260035562127500600455600a60055534801561002157600080fd5b50604051610e4b380380610e4b833981016040819052610040916100ec565b6001600055338061006b57604051631e4fbdf760e01b81526000600482015260240160405180910390fd5b6100748161009a565b50600280546001600160a01b0319166001600160a01b039290921691909117905561011c565b600180546001600160a01b038381166001600160a01b0319831681179093556040519116919082907f8be0079c531659141344cd1fd0a4f28419497f9722a3daafe3b4186f6b6457e090600090a35050565b6000602082840312156100fe57600080fd5b81516001600160a01b038116811461011557600080fd5b9392505050565b610d208061012b6000396000f3fe608060405234801561001057600080fd5b50600436106101415760003560e01c80637b0a47ee116100b8578063ab7c48411161007c578063ab7c4841146102c5578063b88a802f146102ce578063e7a1107f146102d6578063f2fde38b146102e9578063fc0c546a146102fc578063fccc28131461030f57600080fd5b80637b0a47ee14610227578063817b1cd21461022f5780638da5cb5b146102385780639168ae721461025d578063a694fc3a146102b257600080fd5b80633bcfc4b81161010a5780633bcfc4b8146101a55780633d18b912146101ae5780635dcc9391146101b657806370a08231146101c1578063715018a6146101ea578063733bdef0146101f257600080fd5b80628cc2621461014657806318160ddd1461016c5780631ada70a81461017457806324f45e671461017d5780632e1a7d4d14610192575b600080fd5b610159610154366004610c04565b610318565b6040519081526020015b60405180910390f35b600754610159565b61015960045481565b61019061018b366004610c34565b6103d6565b005b6101906101a0366004610c34565b610419565b61015960035481565b6101906106e4565b6101596301e1338081565b6101596101cf366004610c04565b6001600160a01b031660009081526006602052604090205490565b6101906106ee565b610205610200366004610c04565b610700565b6040805194855260208501939093529183015215156060820152608001610163565b600354610159565b61015960075481565b6001546001600160a01b03165b6040516001600160a01b039091168152602001610163565b61029261026b366004610c04565b60066020526000908152604090208054600182015460028301546003909301549192909184565b604080519485526020850193909352918301526060820152608001610163565b6101906102c0366004610c34565b610770565b61015960055481565b61019061095e565b6101906102e4366004610c34565b610b05565b6101906102f7366004610c04565b610b20565b600254610245906001600160a01b031681565b61024561dead81565b6001600160a01b038116600090815260066020908152604080832081516080810183528154808252600183015494820194909452600282015492810192909252600301546060820152908203610372576060015192915050565b60008160200151426103849190610c63565b905060006103976301e133806064610c7c565b600354845184916103a791610c7c565b6103b19190610c7c565b6103bb9190610c93565b90508083606001516103cd9190610cb5565b95945050505050565b6103de610b5b565b60038190556040518181527f5d96611557274413c64267972d202ca41009c399954bcb4cbab17d2a5156fbb09060200160405180910390a150565b610421610b88565b3380156104595761043181610318565b6001600160a01b03821660009081526006602052604090206003810191909155426001909101555b600082116104a25760405162461bcd60e51b8152602060048201526011602482015270043616e6e6f74207769746864726177203607c1b60448201526064015b60405180910390fd5b336000908152600660205260409020548211156104f85760405162461bcd60e51b8152602060048201526014602482015273496e73756666696369656e742062616c616e636560601b6044820152606401610499565b3360009081526006602052604081208054849290610517908490610c63565b9250508190555081600760008282546105309190610c63565b90915550503360009081526006602052604081206002015442101561056c5760646005548461055f9190610c7c565b6105699190610c93565b90505b60006105788285610c63565b905081156105df57600254604051630852cd8d60e31b8152600481018490526001600160a01b03909116906342966c6890602401600060405180830381600087803b1580156105c657600080fd5b505af11580156105da573d6000803e3d6000fd5b505050505b60025460405163a9059cbb60e01b8152336004820152602481018390526001600160a01b039091169063a9059cbb906044016020604051808303816000875af1158015610630573d6000803e3d6000fd5b505050506040513d601f19601f820116820180604052508101906106549190610cc8565b6106995760405162461bcd60e51b815260206004820152601660248201527514185e5bdd5d081d1c985b9cd9995c8819985a5b195960521b6044820152606401610499565b604080518581526020810184905233917f92ccf450a286a957af52509bc1c9939d1a6a481783e142e41e2499f0bb66ebc6910160405180910390a25050506106e16001600055565b50565b6106ec61095e565b565b6106f6610b5b565b6106ec6000610bb2565b6001600160a01b03811660009081526006602090815260408083208151608081018352815480825260018301549482019490945260028201549281019290925260030154606082015282918291829161075887610318565b60409290920151909791965094504285119350915050565b610778610b88565b3380156107b05761078881610318565b6001600160a01b03821660009081526006602052604090206003810191909155426001909101555b600082116107f15760405162461bcd60e51b815260206004820152600e60248201526d043616e6e6f74207374616b6520360941b6044820152606401610499565b3360009081526006602052604081208054849290610810908490610cb5565b90915550506004546108229042610cb5565b336000908152600660205260408120600201919091556007805484929061084a908490610cb5565b90915550506002546040516323b872dd60e01b8152336004820152306024820152604481018490526001600160a01b03909116906323b872dd906064016020604051808303816000875af11580156108a6573d6000803e3d6000fd5b505050506040513d601f19601f820116820180604052508101906108ca9190610cc8565b6109085760405162461bcd60e51b815260206004820152600f60248201526e151c985b9cd9995c8819985a5b1959608a1b6044820152606401610499565b33600081815260066020908152604091829020600201548251868152918201527f1449c6dd7851abc30abf37f57715f492010519147cc2652fbc38202c18a6ee90910160405180910390a2506106e16001600055565b610966610b88565b33801561099e5761097681610318565b6001600160a01b03821660009081526006602052604090206003810191909155426001909101555b33600090815260066020526040902060030154806109f45760405162461bcd60e51b81526020600482015260136024820152724e6f207265776172647320746f20636c61696d60681b6044820152606401610499565b3360008181526006602052604080822060030191909155600254905163a9059cbb60e01b81526004810192909252602482018390526001600160a01b03169063a9059cbb906044016020604051808303816000875af1158015610a5b573d6000803e3d6000fd5b505050506040513d601f19601f82011682018060405250810190610a7f9190610cc8565b610ac45760405162461bcd60e51b815260206004820152601660248201527514995dd85c99081d1c985b9cd9995c8819985a5b195960521b6044820152606401610499565b60405181815233907f106f923f993c2149d49b4255ff723acafa1f2d94393f561d3eda32ae348f72419060200160405180910390a250506106ec6001600055565b610b0d610b5b565b610b1a8162015180610c7c565b60045550565b610b28610b5b565b6001600160a01b038116610b5257604051631e4fbdf760e01b815260006004820152602401610499565b6106e181610bb2565b6001546001600160a01b031633146106ec5760405163118cdaa760e01b8152336004820152602401610499565b600260005403610bab57604051633ee5aeb560e01b815260040160405180910390fd5b6002600055565b600180546001600160a01b038381166001600160a01b0319831681179093556040519116919082907f8be0079c531659141344cd1fd0a4f28419497f9722a3daafe3b4186f6b6457e090600090a35050565b600060208284031215610c1657600080fd5b81356001600160a01b0381168114610c2d57600080fd5b9392505050565b600060208284031215610c4657600080fd5b5035919050565b634e487b7160e01b600052601160045260246000fd5b81810381811115610c7657610c76610c4d565b92915050565b8082028115828204841417610c7657610c76610c4d565b600082610cb057634e487b7160e01b600052601260045260246000fd5b500490565b80820180821115610c7657610c76610c4d565b600060208284031215610cda57600080fd5b81518015158114610c2d57600080fdfea2646970667358221220666e5c1071bb22804bf52ff29a3d4f4e26281a0f709ca2ded9c2fa789cf95dbe64736f6c63430008140033",
  "linkReferences": {},
  "deployedLinkReferences": {}
}